:020000040000FA
:0400000080EF05F098
:0800080000017AEF22F05357CA
:1000100052204D65746572202A2042792050413269
:1000200052444B002020205757572E5049345241FC
:100030005A2E4E4C20436F70797269676874205055
:10004000413252444B2028632900202020566572FB
:1000500073696F6E20322E32524546203D00535751
:1000600052203D005045414B3D0057203057200065
:10007000313A20002E002A005245460048494748A0
:100080002000313D323D5357523120506F77657219
:1000900020005357523220506F77657220004D7503
:1000A0006C7469706C69657220003520566F6C74D1
:1000B0002020202020004F6E20004F66660048461A
:1000C0002000344D2000564846005548460053480D
:1000D0004600467265654E2F43000C0D0E0F101042
:1000E000111213131415151617171819191A1B1CAA
:1000F0001C1D1E1F20202122232425262728292AD3
:100100002B2C2E2F303133343637393A3C3E404198
:100110004345484A4C4F5154575A5D6163000000B3
:1001200000000101010102020203030405050606A5
:100130000708090A0B0C0D0E0F10111213141617D5
:10014000191A1B1D1E2022232527292A2C2E303266
:100150003436383A3D3F414346484A4D4F52555751
:100160005A5C5F6265686B6E7174777A7D80838696
:100170008A8D9194979B9EA2A6A9ADB1B5B8BCC03B
:10018000C4C8CCD0D4D80003080C11151A1E2327DC
:100190002B3034393D41464A4E52575B5F63676BA3
:1001A0006F73777B7F83878A8E9295999DA0A4A792
:1001B000AAAEB1B4B7BABDC0C3C6C9CBCED1D3D62F
:1001C000D8DADDDFE1E3E5E7E9EBECEEF0F1F2F4BC
:1001D000F5F6F7F8F9FAFBFCFDFDFEFEFEFFFFFF6A
:1001E000FF00000000000000002F000000070007D3
:1001F00000147F147F14242A7F2A12C4C8102646B4
:1002000036495522500005030000001C2241000021
:1002100041221C0014083E081408083E080800008B
:100220005030001010101010006060000020100806
:1002300004023E5149453E00427F4000426151491F
:10024000462141454B311814127F10274545453949
:100250003C4A494930017109050336494949360686
:100260004949291E003636000000563600000814A1
:1002700022410014141414140041221408020151E4
:100280000906324959513E7E1111117E7F49494973
:10029000363E414141227F4141221C7F494949412B
:1002A0007F090909013E4149497A7F0808087F0012
:1002B000417F41002040413F017F081422417F409F
:1002C0004040407F020C027F7F0408107F3E414186
:1002D000413E7F090909063E4151215E7F091929E6
:1002E00046464949493101017F01013F4040403FB5
:1002F0001F2040201F3F4038403F6314081463070D
:10030000087008076151494543007F414100552A63
:10031000552A550041417F0004020102044040403B
:100320004040000102040020545454787F48444463
:10033000383844444420384444487F38545454188E
:10034000087E0901020C5252523E7F0804047800D4
:10035000447D40002040443D007F1028440000417F
:100360007F40007C041804787C08040478384444F6
:1003700044387C14141408081414187C7C080404F1
:10038000084854545420043F4440203C4040207CC2
:100390001C2040201C3C4030403C44281028440C89
:1003A0005050503C4464544C440000000000000095
:1003B000000000000000000020202020202000205D
:1003C0000000002850500000000000000000000065
:1003D0002828FC2850FC50500000002078A8A0607D
:1003E0003028A8F02000000048A8B0502834544815
:1003F0000000000020505078A8A8906C0000004039
:1004000040800000000000000000000408101010F0
:1004100010101008040000402010101010101020C0
:10042000400000000020A87070A82000000000001C
:10043000202020F820202000000000000000000004
:100440000000004040800000000000F800000000B4
:100450000000000000000000000000400000000854
:1004600010101020204040408000000070888888D4
:1004700088888870000000002060202020202070E4
:100480000000000070888810204080F80000000004
:100490007088083008088870000000001030505044
:1004A0009078101800000000F88080F0080888702C
:1004B00000000000709080F08888887000000000C4
:1004C000F890102020202020000000007088887004
:1004D00088888870000000007088888878084870D4
:1004E00000000000000020000000002000000000CC
:1004F0000000002000000020200000040810204020
:1005000020100804000000000000F80000F80000BF
:1005100000000040201008040810204000000000E7
:10052000708888102020002000000000708898A8A3
:10053000A8B880780000000020203050507848CCC7
:1005400000000000F0484870484848F000000000F3
:10055000788880808080887000000000F0484848DB
:10056000484848F000000000F8485070504048F8F3
:1005700000000000F8485070504040E000000000CB
:10058000384880809C88483000000000CC4848787B
:10059000484848CC00000000F8202020202020F807
:1005A000000000007C10101010101090E0000000FF
:1005B000EC485060505048EC00000000E0404040E3
:1005C000404044FE00000000D8D8D8D8A8A8A8A869
:1005D00000000000DC486868585848E80000000047
:1005E000708888888888887000000000F04848700B
:1005F000404040E0000000007088888888E89870DB
:1006000018000000F0484870504848EC0000000016
:1006100078888060100888F000000000F8A820208A
:100620002020207000000000CC484848484848304E
:1006300000000000CC48485050302020000000004E
:10064000A8A8A8705050505000000000D85050206A
:10065000205050D800000000D8505020202020709A
:1006600000000000F8901020204048F800000038FA
:100670002020202020202020380000404040202042
:100680001010100800000070101010101010101042
:10069000700000205000000000000000000000007A
:1006A000000000000000000000FC0020000000002E
:1006B0000000000000000000000000304838483C06
:1006C00000000000C0404070484848700000000032
:1006D0000000003848404038000000001808083882
:1006E0004848483C0000000000000030487840388E
:1006F000000000001C20207820202078000000004E
:100700000000003C4830407844380000C040407051
:10071000484848EC000000002000006020202070C5
:1007200000000000100000301010101010E0000059
:10073000C040405C507048EC00000000E0202020E9
:10074000202020F800000000000000F0A8A8A8A8C1
:1007500000000000000000F0484848EC00000000E5
:10076000000000304848483000000000000000F061
:100770004848487040E000000000003848484838C9
:10078000081C0000000000D8604040E000000000AD
:100790000000007840300878000000000020207041
:1007A0002020201800000000000000D84848483CE5
:1007B00000000000000000EC485030200000000065
:1007C000000000A8A870505000000000000000D8F1
:1007D000502050D800000000000000EC48503020AD
:1007E00020C00000000000781020207800000018D1
:1007F00010101020101010101800101010101010F1
:100800001010101010100060202020102020202038
:10081000600040A41800000000000000000000007C
:10082000000000000000002F00000000070007008B
:1008300000147F147F1400242A7F2A1200626408A7
:100840001323003649552250000005030000000024
:100850001C224100000041221C000014083E081424
:100860000008083E0808000000A060000008080812
:100870000808000060600000002010080402003E2C
:100880005149453E0000427F4000004261514946C7
:10089000002141454B31001814127F1000274545B7
:1008A0004539003C4A4949300001710905030036C9
:1008B0004949493600064949291E000036360000DC
:1008C00000005636000000081422410000141414E1
:1008D00014140000412214080002015109060032DC
:1008E0004959513E007C1211127C007F494949361A
:1008F000003E41414122007F4141221C007F494985
:100900004941007F09090901003E4149497A007FB8
:100910000808087F0000417F4100002040413F015E
:10092000007F08142241007F40404040007F020CBD
:10093000027F007F0408107F003E4141413E007F5E
:1009400009090906003E4151215E007F0919294627
:100950000046494949310001017F0101003F404003
:10096000403F001F2040201F003F4038403F0063B1
:1009700014081463000708700807006151494543D3
:1009800000007F41410000552A552A550000414191
:100990007F0000040201020400404040404000008B
:1009A00001020400002054545478007F4844443825
:1009B00000384444442000384444487F00385454AC
:1009C000541800087E0901020018A4A4A47C007F2A
:1009D000080404780000447D4000004080847D00CD
:1009E000007F102844000000417F4000007C041874
:1009F0000478007C0804047800384444443800FC3F
:100A0000242424180018242418FC007C080404085A
:100A100000485454542000043F444020003C4040CF
:100A2000207C001C2040201C003C4030403C004406
:100A300028102844001CA0A0A07C004464544C440E
:100A4000000006090906200E1B6ED89011361236DA
:100A500013361436D89009360A360B360C36D8A021
:100A60003AEF05F00D5011260E5012220F501322AE
:100A7000105014221B2E25EF05F01200200E1B6EC5
:100A80000D6A0E6A0F6A106AD89015361636173638
:100A90001836D89009360A360B360C360D360E3617
:100AA0000F3610361050145CD8A463EF05F00F50C9
:100AB000135CD8A463EF05F00E50125CD8A463EF6A
:100AC00005F00D50115CD8B469EF05F0D8B077EFA0
:100AD00005F0D8800D5011540D6E0E5012540E6E4C
:100AE0000F5013540F6E10501454106E15801B2E9F
:100AF00044EF05F01200FB6E1E50FA6E1D50F96EA9
:100B00008F0ED3147009D36E6D966F86080E6F6EBC
:100B1000938293849386949C949E9388938A9380E3
:100B2000939E9288928A928C939CC26A0F0EC16E99
:100B3000C06A070EB46E69EF07F00201686F685172
:100B4000D8B41200010E685DD8A4ACEF05F0000027
:100B5000000000000000120068070000000068515B
:100B6000696F6A6BBEEF05F00001030E096E092E76
:100B7000B7EF05F00000000002016A2B6A51695DC1
:100B8000D8A4B4EF05F012006251646F6351656F31
:100B9000666B676BDEEF05F00001B40E096E020EA6
:100BA0000A6E0A2ED1EF05F0092ECFEF05F00000F6
:100BB000000000000201662BD8B4672B6651645D0B
:100BC000096E6751655D0910D8A4CCEF05F01200DD
:100BD0005C515E6F5D515F6F606B616B04EF06F09F
:100BE00000016B0E096EE90E0A6E010E0B6E0B2EE4
:100BF000F7EF05F00A2EF5EF05F0092EF3EF05F0FB
:100C00000201602BD8B4612B60515E5D096E6151A9
:100C10005F5D0910D8A4F0EF05F012005251576F34
:100C20005351586F57515A6F58515B6F596B31EF91
:100C300006F054515925F66E000E006E55510020F5
:100C4000F76E56510020F86EF89C0900F550096EB9
:100C50004F511D6E50511E6E51517BEC05F002013B
:100C6000592B59515A5D096E5B510910D8A419EFDF
:100C700006F01200D8904236433644364536D890B6
:100C800042344B6F43344C6F44344D6F45344E6F98
:100C9000D8904B374C374D374E374B5142264C513D
:100CA00043224D5144224E5145221200010E426E04
:100CB000436A446A456A436B446B4550425DD8A41D
:100CC0006EEF06F04450415DD8A46EEF06F043503D
:100CD000405DD8A46EEF06F042503F5D4691D8A427
:100CE000D8B04681000E445DD8A479EF06F00A0E14
:100CF000435D4693D8B47FEF06F0D8A0468346857F
:100D000046B146A3469546A58EEF06F03AEC06F0AE
:100D10000201432BD8B4442B5DEF06F0435144113C
:100D2000D8A496EF06F0010E436F446B43074329A6
:100D3000D8B44407010E426E436A446A456A43517F
:100D4000476F4451486F496B4A6BADEF06F03AEC80
:100D500006F00201492BD8B44A2B4951475D096E70
:100D60004A51485D0910D8A4A7EF06F0300E456F30
:100D70004251455CD8A4C9EF06F04151445CD8A467
:100D8000C9EF06F04051435CD8A4C9EF06F03F51CB
:100D9000425CD8B4CFEF06F0D8B0DFEF06F0D880D1
:100DA0003F5142543F6F40514354406F415144546E
:100DB000416F42514554426F452BB8EF06F0455103
:100DC000096E3C511D6E3D511E6E3E517BEC05F08F
:100DD000020143514411D8A496EF06F01200365197
:100DE000386F3751396F3A6B3B6B33513C6F34512D
:100DF0003D6F35513E6F38513F6F3951406F3A5119
:100E0000416F3B51426F56EF06F00201326F010E07
:100E1000325DD8A410EF07F0010E466E050E476E46
:100E2000020E325DD8A419EF07F0020E466E060ED0
:100E3000476E030E325DD8A422EF07F0030E466E14
:100E4000080E476E3251FF0E325D1200010E465CF5
:100E5000D8A43CEF07F0E20EF66E010EF76E000E1E
:100E6000F86E4050F6264150F722000E006E0050FA
:100E7000F8220900F5501200020E465CD8A452EF89
:100E800007F01E0EF66E080EF76E000EF86E40505C
:100E9000F6264150F722000E006E0050F82209009D
:100EA000F5501200030E465CD8A468EF07F0AA0EB6
:100EB000F66E030EF76E000EF86E4050F6264150A7
:100EC000F722000E006E0050F8220900F5501200C3
:100ED000000C486A010E496E54EF0AF03C6E8D908A
:100EE000000000003DB078EF07F08B8279EF07F04B
:100EF0008B808D94000000003C508C6E956A8D8034
:100F000000000000000000008D90000000008B92A7
:100F10008B9012008D90000000003FB093EF07F01F
:100F20008B8294EF07F08B808D84000000008D8011
:100F300000000000000000008D9000000000FF0E87
:100F4000956E83503E6E8B928B903E5012003D907A
:100F50003F0E6EEC07F03D803F0E6EEF07F0020192
:100F6000216F2991400E215DD8B4BAEF07F0D8A0C7
:100F7000BDEF07F0C00E212729818D923F0E21156C
:100F80002A6F400E2A112B6F3D9029B13D802B51C5
:100F90006EEC07F0D89002012231276FD8902733EA
:100FA000D8902733070E27152C6FB80E2C112D6FF4
:100FB0003D9029B13D802D516EEC07F08D823F9020
:100FC000020129B13F808AEC07F00201236F3F90B4
:100FD00029B13F808AEC07F00201236F010E495CC2
:100FE000D8A407EF08F0070E2215246F2451006ED5
:100FF000010E256F005000EF08F0D890253700064D
:10100000D8A4FDEF07F0255123131BEF08F0070EBE
:101010002215246F2451006E010E256F005014EF2D
:1010200008F0D89025370006D8A411EF08F0251D48
:10103000266F265123178D923F0E21152E6F400EDD
:101040002E112F6F3D9029B13D802F516EEC07F08E
:10105000D89002012231286FD8902833D8902833B5
:10106000070E2815306FB80E3011316F3D9029B141
:101070003D8031516EEC07F08D823D90020129B127
:101080003D8023516EEF07F02D6E3490400E2D5CA5
:10109000D8B44EEF08F0D8A051EF08F0C00E2D26BE
:1010A00034808D923F0E2D14356E400E3510366E05
:1010B0003D9034B03D8036506EEC07F0D8902E3025
:1010C000336ED8903332D8903332070E3314356EE6
:1010D000B80E3510366E3D9034B03D8036506EEC13
:1010E00007F08D82070E2E14306E3050D8A47FEF9B
:1010F00008F03D9034B03D802F506EEF07F03F90E8
:1011000034B03F808AEC07F0356E3F9034B03F80BA
:101110008AEC07F0356E070E2E14306ED880080E5C
:101120003054316E3150006EFF0E326E0052D8B422
:101130009FEF08F0D8903232002E9AEF08F032502C
:101140003516070E2E14306E3050006E2F50316E53
:101150000050AEEF08F0D89031360006D8A4ABEFBF
:1011600008F0315035128D923F0E2D14396E400E1D
:1011700039103A6E3D9034B03D803A506EEC07F035
:10118000D8902E30366ED8903632D8903632070E40
:101190003614396EB80E39103A6E3D9034B03D8039
:1011A0003A506EEC07F08D823D9034B03D80355062
:1011B0006EEC07F08D923F0E2D14396E400E3910F3
:1011C0003A6E3D9034B03D803A506EEC07F0D890C6
:1011D0002E30306ED8903032D89030323028376E82
:1011E000070E3714396EB80E39103A6E3D9034B090
:1011F0003D803A506EEC07F08D823F9034B03F80D6
:101200008AEC07F0356E3F9034B03F808AEC07F0EF
:10121000356E070E2E14306E3050006EFF0E316E9C
:10122000005016EF09F0D89031360006D8A413EF1D
:1012300009F031503516070E2E14306ED880080E86
:101240003054316E3150006E2F50326E0052D8B48F
:101250002FEF09F0D8903232002E2AEF09F03250E9
:1012600035128D923F0E2D14396E400E39103A6EA4
:101270003D9034B03D803A506EEC07F0D8902E305F
:10128000306ED8903032D89030323028386E070E19
:101290003814396EB80E39103A6E3D9034B03D8036
:1012A0003A506EEC07F08D823D9034B03D80355061
:1012B0006EEF07F00201146F156B8D92070E151576
:1012C000176FB80E1711186F3D9018516EEC07F09C
:1012D000070E02011515196FB80E19111A6F3D800E
:1012E0001A516EEC07F002011B6B3F0E1B151C6FB1
:1012F000400E1C111D6F3D901D516EEC07F0020158
:101300001E6B3F0E1E151F6F400E1F11206F3D807C
:1013100020516EEC07F08D820201166B3D90145146
:101320006EEC07F03D80020114516EEC07F00201F3
:10133000162B800E165DD8A48EEF09F0152B080E23
:10134000155DD8A45DEF09F012008B940000000039
:10135000000000008B844850D8A4B4EF09F0000EC0
:101360005AEC09F0B7EF09F0FF0E5AEC09F08D9234
:101370000101FF6B070EFF150201096FB80E09117D
:101380000A6F3D900A516EEC07F002010B6B070EDD
:101390000B150C6FB80E0C110D6F3D800D516EECDE
:1013A00007F002010E6B3F0E0E150F6F400E0F116E
:1013B000106F3D9010516EEC07F00201116B3F0E63
:1013C0001115126F400E1211136F3D8013516EEC08
:1013D00007F0A7EF07F08C6A956A8D828D948D8057
:1013E0008B928B908B8496949692969094909492F4
:1013F0009494A5EF09F0226E200E245C2C90D8B4B2
:1014000004EF0AF0D8A02C807A0E245C2C92D8B479
:101410000CEF0AF0D8B02C822C942CA02CB22C8487
:101420002CA415EF0AF0200E246EE00E2424286E62
:10143000296A4750096E0A6A0B6A0C6A28500D6EB9
:1014400029500E6E0F6A106A23EC05F01150256EBC
:101450001250266E47502A6E2B6A4EEF0AF0800E0D
:10146000225CD8B437EF0AF0D8A038EF0AF01200A7
:101470002550406E2650416E26EC07F0276E4950ED
:10148000D8B4271E23502E6E27502F6E225044ECC6
:1014900008F0252AD8B4262A222A2B2A2B502A5C87
:1014A000D8A42FEF0AF012004A6A4B6A65EF0FF0DA
:1014B0000950216E4B50236E2150246E4A50FBEC94
:1014C00009F047504A261200F76FF751F825FD6FD3
:1014D000000E006E0050F921FE6FD880F751F855CC
:1014E0000201006F000E006E00500101F95502016B
:1014F000016F0101FA51FB250201026F000E006E1F
:1015000000500101FC210201036FD8800101FA5152
:10151000FB550201046F000E006E00500101FC55E6
:101520000201056F0101FE51800A096E800E095CFF
:10153000D8A49DEF0AF0000EFD5D02010691D8A42B
:10154000D8B006810101FE51800A096E800E095C47
:10155000D8A4ADEF0AF0800EFD5D02010693D8B469
:10156000B4EF0AF0D8A00683068506B106A3069557
:1015700006A512EF0BF00351800A096E800E095C7C
:10158000D8A4C5EF0AF0000E025D0697D8A4D8B023
:1015900006870351800A096E800E095CD8A4D3EF38
:1015A0000AF0400E025D0699D8B4D9EF0AF0D8A02F
:1015B0000689068B06B706A9069B06ABE6EF0AF07E
:1015C0000251226F0101FD51AFEC07F002010551FC
:1015D000800A096E800E095CD8A4F1EF0AF0000EB3
:1015E000045D069DD8A4D8B0068D0551800A096E09
:1015F000800E095CD8A4FFEF0AF0400E045D069F40
:10160000D8B405EF0BF0D8A0068F078106BD06AF52
:10161000079107A112EF0BF00451226F0101FD5158
:10162000AFEC07F002010151800A096E800E095CDF
:10163000D8A41DEF0BF0000E005D0793D8A4D8B01E
:1016400007830151800A096E800E095CD8A42BEF34
:101650000BF0800E005D0795D8B431EF0BF0D8A0E9
:101660000785078707B307A5079707A78DEF0BF037
:101670000351800A096E800E095CD8A442EF0BF07A
:10168000000E025D0799D8A4D8B007890351800ADB
:10169000096E800E095CD8A450EF0BF0400E025D7D
:1016A000079BD8B456EF0BF0D8A0078B078D07B96E
:1016B00007AB079D07AD62EF0BF00251226F00519F
:1016C000AFEC07F002010551800A096E800E095C3B
:1016D000D8A46DEF0BF0000E045D079FD8A4D8B01E
:1016E000078F0551800A096E800E095CD8A47BEF34
:1016F0000BF0400E045D0891D8B481EF0BF0D8A038
:101700000881088307BF08A1089308A38DEF0BF099
:101710000451226F0051AFEF07F012000101C96FB1
:10172000CB51D66FD76BD86BCC51D96FDA6BDB6BE3
:10173000D651DC6FD751DD6FD851DE6FDF6BE06BB8
:10174000E16BD890D635CD6FD735CE6FD835CF6F0A
:10175000CD51096ECE510A6ECF510B6E000E0BBEED
:10176000FF0E0C6ED6510D6ED7510E6ED8510F6E06
:10177000000E0FBEFF0E106E23EC05F0115001019C
:10178000E26F1250E36F1350E46FD890D935CD6FEC
:10179000DA35CE6FDB35CF6FCD51096ECE510A6E83
:1017A000CF510B6E000E0BBEFF0E0C6ED9510D6E9D
:1017B000DA510E6EDB510F6E000E0FBEFF0E106E73
:1017C00023EC05F011500101E56F1250E66F135044
:1017D000E76FD951096EDA510A6EDB510B6E000EBC
:1017E0000BBEFF0E0C6ED9510D6EDA510E6EDB5131
:1017F0000F6E000E0FBEFF0E106E23EC05F01150A1
:101800000101CD6F1250CE6F1350CF6FD890D635E7
:10181000D06FD735D16FD835D26FD880010ED05563
:10182000D36F000ED155D46F000ED255D56FCD5168
:10183000096ECE510A6ECF510B6E000E0BBEFF0E1D
:101840000C6ED3510D6ED4510E6ED5510F6E000E2D
:101850000FBEFF0E106E23EC05F011500101E86F72
:101860001250E96F1350EA6FD651096ED7510A6EC4
:10187000D8510B6E000E0BBEFF0E0C6ED6510D6EC6
:10188000D7510E6ED8510F6E000E0FBEFF0E106EA8
:1018900023EC05F011500101EB6F1250EC6F135067
:1018A000ED6FEE6BEF6BF06BE551096EE6510A6E72
:1018B000E7510B6E000E0BBEFF0E0C6ED6510D6E77
:1018C000D7510E6ED8510F6E000E0FBEFF0E106E68
:1018D00023EC05F011500101F16F1250F26F13501B
:1018E000F36FF46BF56BF66BF651800A096EF351EA
:1018F000800A095CD8A484EF0CF0F251F55DD8A4FD
:1019000084EF0CF0F151F45DD8B48AEF0CF0D8B04C
:10191000F2EF0CF0DC51F86FDD51F96FCA51FA6F3C
:10192000DF51FB6FE051FC6FC95164EC0AF001011B
:10193000DF2BD8B4E02BD8B4E12BE251F427E351EC
:10194000F523E451F623EB51EE27EC51EF23ED5153
:10195000F023E251EB27E351EC23E451ED23D8903F
:10196000EE35CD6FEF35CE6FF035CF6FCD51E82529
:10197000D06FCE51E921D16FCF51EA21D26FD25130
:10198000800A096E800E095CD8A4CEEF0CF0000E20
:10199000D15DD8A4CEEF0CF0000ED05DD8B474EFBA
:1019A0000CF0D8A074EF0CF0010EDC5FD8A0DD5F66
:1019B000D8A0DE5FD880F151E555F16FF251E655C0
:1019C000F26FF351E755F36FE851EE27E951EF233A
:1019D000EA51F023E551E827E651E923E751EA23EC
:1019E00074EF0CF0DC6BDD6BDE6BD951DF6FDA511D
:1019F000E06FDB51E16FD951096EDA510A6EDB51AC
:101A00000B6E000E0BBEFF0E0C6ED9510D6EDA512F
:101A10000E6EDB510F6E000E0FBEFF0E106E23EC2C
:101A200005F011500101E86F1250E96F1350EA6F91
:101A3000D651096ED7510A6ED8510B6E000E0BBEEF
:101A4000FF0E0C6ED6510D6ED7510E6ED8510F6E23
:101A5000000E0FBEFF0E106E23EC05F011500101B9
:101A6000CD6F1250CE6F1350CF6FD890D935D06F45
:101A7000DA35D16FDB35D26FD880010ED055D36FF8
:101A8000000ED155D46F000ED255D56FCD51096ED1
:101A9000CE510A6ECF510B6E000E0BBEFF0E0C6EB8
:101AA000D3510D6ED4510E6ED5510F6E000E0FBE78
:101AB000FF0E106E23EC05F011500101EB6F125078
:101AC000EC6F1350ED6FEE6BEF6BF06BF16BF26B35
:101AD000F36BE251096EE3510A6EE4510B6E000E96
:101AE0000BBEFF0E0C6ED9510D6EDA510E6EDB512E
:101AF0000F6E000E0FBEFF0E106E23EC05F011509E
:101B00000101F46F1250F56F1350F66FF651800A11
:101B1000096EF351800A095CD8A496EF0DF0F251DA
:101B2000F55DD8A496EF0DF0F151F45DD8B49CEFBB
:101B30000DF0D8A004EF0EF0DC51F86FDD51F96F15
:101B4000CA51FA6FDF51FB6FE051FC6FC95164EC71
:101B50000AF00101DC2BD8B4DD2BD8B4DE2BE55123
:101B6000F127E651F223E751F323E851EE27E9513B
:101B7000EF23EA51F023E551E827E651E923E75145
:101B8000EA23D890EE35CD6FEF35CE6FF035CF6FBD
:101B9000CD51EB25D06FCE51EC21D16FCF51ED213E
:101BA000D26FD251800A096E800E095CD8A4E0EF92
:101BB0000DF0000ED15DD8A4E0EF0DF0000ED05D69
:101BC000D8B486EF0DF0D8A086EF0DF0010EDF5FE0
:101BD000D8A0E05FD8A0E15FD880F451E255F46F5F
:101BE000F551E355F56FF651E455F66FEB51EE27DD
:101BF000EC51EF23ED51F023E251EB27E351EC23BD
:101C0000E451ED2386EF0DF01200AB6FAD51AF6FD5
:101C1000B06BAB51B16FB26BD880AF51B155B36FF0
:101C2000B051B255B46FAE51AF6FB06BAC51B16F34
:101C3000B26BD880AF51B155B56FB051B255B66FD8
:101C4000D890B335B76FB435B86FD890B535B96F94
:101C5000B635BA6FAB51BB6FBC6BAC51BD6FBE6BD1
:101C6000010EBF6FC06B010EC16FC26BB451800A11
:101C7000096E800E095CD8A440EF0EF0000EB35D33
:101C8000D8B453EF0EF0D8B053EF0EF0FF0EBF6F85
:101C9000C06FB31FB41FB32BD8B4B42BB71FB81F7A
:101CA000B72BD8B4B82BB651800A096E800E095CE8
:101CB000D8A45DEF0EF0000EB55DD8B470EF0EF055
:101CC000D8B070EF0EF0FF0EC16FC26FB51FB61F18
:101CD000B52BD8B4B62BB91FBA1FB92BD8B4BA2BB1
:101CE000AC510201226F0101AB51AFEC07F00101D1
:101CF000B351B411C785D8B4C795B551B611C787CC
:101D0000D8B4C797C799C7A5C7B7C789C7A90AEFE6
:101D10000FF0B451800A096EB651800A095CD8A44C
:101D200094EF0EF0B551B35DD8B49AEF0EF0D8A091
:101D3000D2EF0EF0C36BC46B0101BB51AD5D096EF8
:101D4000BC510910D8B40AEF0FF0BF51BB27C051E6
:101D5000BC23B951C327BA51C423B451800A096EB8
:101D6000C451800A095CD8A4B8EF0EF0C351B35D2A
:101D7000D8B4C9EF0EF0D8B0C9EF0EF0C151BD27ED
:101D8000C251BE23D880C351B755C36FC451B85593
:101D9000C46FBD510201226F0101BB51AFEC07F0CE
:101DA0009CEF0EF0C56BC66B0101BD51AE5D096EB7
:101DB000BE510910D8B40AEF0FF0C151BD27C2516E
:101DC000BE23B751C527B851C623B651800A096E44
:101DD000C651800A095CD8A4F0EF0EF0C551B55D7C
:101DE000D8B401EF0FF0D8B001EF0FF0BF51BB270F
:101DF000C051BC23D880C551B955C56FC651BA551D
:101E0000C66FBD510201226F0101BB51AFEC07F05B
:101E1000D4EF0EF01200A76FA851AC6FA951AD6FAF
:101E2000A851AE6FA75105EC0EF00101A851AC6F9F
:101E3000A951AD6FAA51AE6FA95105EC0EF0010189
:101E4000AA51AC6FA751AD6FAA51AE6FA95105EC65
:101E50000EF00101AA51AC6FA751AD6FA851AE6F42
:101E6000A75105EF0EF0A251A56FA351A66FA6B220
:101E700037EF0FF0A551A96EA69CA69EA680A8508C
:101E8000A46FA451120001019E6F9C51A06F9D513F
:101E9000A16FA6B249EF0FF0A051A96EA69CA69E15
:101EA0009E51A86EA6849F91F2BE9F81F29E550E10
:101EB000A76EAA0EA76EA6829FB162EF0FF0F29EE8
:101EC00063EF0FF0F28EA6941200020E05EC07F0FD
:101ED000EBEC09F08B8E8B9C4C6A4D6A010E4E6EBA
:101EE000010E4F6E0001C291C293C295E9EF0FF04F
:101EF000010E496EA5EC09F00101936B4C6A4D6A25
:101F0000D8904C340101946F4D34956FD8904C3477
:101F1000966F4D34976FD880800E9655986F000E4F
:101F20009755996F99519B6F98059A6F9A29D8B4D4
:101F30009B07AC6B9A51AD6F3F0EAE6F945105ECA1
:101F40000EF0030E0201626F636BC4EC05F04C2AC5
:101F5000D8B44D2A3F0E4C5C096E000E4D5C091042
:101F6000D8A480EF0FF04C6A4D6AD880400E4C54D4
:101F70000101946F000E4D54956F4C50AC6FAD6BDA
:101F80009451AE6F7F0E05EC0EF0030E0201626FEE
:101F9000636BC4EC05F04C2AD8B44D2A3F0E4C5C60
:101FA000096E000E4D5C0910D8A4B5EF0FF0496A18
:101FB0000101932B020E935DD8A47EEF0FF0020E69
:101FC00002015C6F5D6BE8EC05F0010E496EA5EF58
:101FD00009F078EC0FF00001C46B0A0EC56FC45114
:101FE0004A6EC5514B6EB00E02014F6F140E506F0A
:101FF000000E516F150E526F536B0E0E546F000E84
:10200000556F000E4009566F0EEC06F00001C66BCE
:10201000140EC76FC6514A6EC7514B6EB00E020107
:102020004F6F140E506F000E516F100E526F536BA6
:10203000240E546F000E556F000E4009566F0EECC3
:1020400006F0020E0001C86F230EC96FC8514A6E18
:10205000C9514B6EB00E02014F6F140E506F000E3F
:10206000516F150E526F536B340E546F000E556F37
:10207000000E4009566F0EEC06F0020E0001CA6F0A
:10208000320ECB6FCA514A6ECB514B6EB00E02016D
:102090004F6F140E506F000E516F0E0E526F536B38
:1020A0004A0E546F000E556F000E4009566F0EEC2D
:1020B00006F0140E02015C6F5D6BE8EC05F0A5EC18
:1020C00009F0206AA9EF10F0916F9135096E093679
:1020D0003C0E0916C30EC2140910C26EC2805150C4
:1020E0009DEC05F0C282C2B273EF10F0C450010142
:1020F000926F810E505CD8B481EF10F0D8A08FEFB2
:1021000010F000010C0E096E1A0E0A6E0A2E86EFF0
:1021100010F0092E84EF10F0000097EF10F000018E
:10212000090E096E092E92EF10F000000000C29017
:1021300001019251120001018E6F8E5164EC10F07A
:102140000101906FC3508F6F8F51096E90510A6ECD
:102150001200F00E0001C3179280F00EC3150E0995
:10216000C36F0F0EC315096E0F0E09140A6EF00E21
:10217000C1140A10C16ECC6BCC39096E300E091631
:10218000CF0EC1140910C16EC08E080ECD6FCE6B7C
:102190000A0ECD6FCE6BF80EC0140109C06ECD5182
:1021A000506EC70EC016150E516E526A536A546AAD
:1021B000556A566A576A586A596A5A6A5B6A5C6A0B
:1021C0005D6A5E6A5F6A606A616A626B636B646BB8
:1021D000656B666B676B686B696B6A6B6B6B6C6B63
:1021E0006D6B6E6B6F6B706B716B726B736B746B13
:1021F000756B766B776B786B796B7A6B7B6B7C6BC3
:102200007D6B7E6B7F6B806B816B826B836B846B72
:10221000856B866B876B886B896B8A6B8B6B8C6B22
:102220008D6B8E6B8F6B906B916B926B936B946BD2
:10223000956B966B976B986B996B9A6B9B6B9C6B82
:102240009D6B9E6B9F6BA06BA16BA26BA36BA46B32
:10225000A56BA66BA76BA86BA96BAA6BAB6BAC6BE2
:10226000AD6BAE6BAF6BB06BB16BB26BB36BB46B92
:10227000B56BB66BB76BB86BB96B640EBA6F640EA7
:10228000BB6F640EBC6F640EBD6F640EBE6FC297F1
:10229000C299C29BC29DC29FBF6BC06BCF6BD06BFC
:1022A000CF510101A26F0001D0510101A36F33ECA6
:1022B0000FF00001D16FD151C16FFF0EC15DD8B4D5
:1022C0004EEF2FF0D26BD36BD2510101A26F000100
:1022D000D3510101A36F33EC0FF00001D46FD4513F
:1022E000C16FC151BA6F010ED56FD66BD5510101C7
:1022F000A26F0001D6510101A36F33EC0FF0000172
:10230000D76FD751C16FC151BB6F020ED86FD96B58
:10231000D8510101A26F0001D9510101A36F33EC23
:102320000FF00001DA6FDA51C16FC151BC6F030EBB
:10233000DB6FDC6BDB510101A26F0001DC5101019D
:10234000A36F33EC0FF00001DD6FDD51C16FC151A0
:10235000BD6F040EDE6FDF6BDE510101A26F000165
:10236000DF510101A36F33EC0FF00001E06FE0518A
:10237000C16FC151BE6F050EE16FE26BE15101010A
:10238000A26F0001E2510101A36F33EC0FF00001D5
:10239000E36FE351C16F060EE46FE56BE451010199
:1023A000A26F0001E5510101A36F33EC0FF00001B2
:1023B000E66FE651C16FC151C297D8A4C287070E1C
:1023C000E76FE86BE7510101A26F0001E8510101DD
:1023D000A36F33EC0FF00001E96FE951C16FC151F8
:1023E000C299D8A4C289080EEA6FEB6BEA510101C9
:1023F000A26F0001EB510101A36F33EC0FF000015C
:10240000EC6FEC51C16FC151C29BD8A4C28B090EB5
:10241000ED6FEE6BED510101A26F0001EE51010174
:10242000A36F33EC0FF00001EF6FEF51C16FC1519B
:10243000C29DD8A4C28D0A0EF06FF16BF05101015C
:10244000A26F0001F1510101A36F33EC0FF0000105
:10245000F26FF251C16FC151C29FD8A4C28F0B0E4F
:10246000F36FF46BF3510101A26F0001F45101010C
:10247000A36F33EC0FF00001F56FF551C16F4EEF14
:102480002FF0030E855DD8A448EF12F0DE0E845DB8
:10249000D8B452EF12F0D8A052EF12F0DE0E846FD3
:1024A000030E856FD880DE0E8455866F030E85552A
:1024B000876F0B0E116E126A136A146A8651096EC9
:1024C00087510A6E0B6A0C6A3EEC05F0155001014B
:1024D000886F1650896F860EF66E010EF76E000E2D
:1024E000F86E8851F6268951F722000E006E0050D2
:1024F000F8220900F5508A6F8B6B8C6B8D6B050E83
:10250000116E126A136A146A8A51096E8B510A6E2F
:102510008C510B6E8D510C6E3EEC05F01550000188
:10252000B46F0B0E116E126A136A146A01018451A2
:10253000096E85510A6E0B6A0C6A3EEC05F0155067
:102540000101866F1650876F860EF66E010EF76ECC
:10255000000EF86E8651F6268751F722000E006EA7
:102560000050F8220900F550886F896B8A6B8B6BDD
:10257000050E116E126A136A146A8851096E895128
:102580000A6E8A510B6E8B510C6E3EEC05F01550A5
:102590000001B56F12007F517D5DD8A4D2EF12F01B
:1025A0007E517C5DD8B4DDEF12F0D8B0DDEF12F0D3
:1025B000FF0E0001B66F8BEF13F07C517D11D8B484
:1025C00088EF13F07E51096E7F510A6E0B6A0C6A18
:1025D000640E0D6E0E6A0F6A106A23EC05F011503E
:1025E0000101806F1250816F7C51116E7D51126E0E
:1025F000136A146A8051096E81510A6E0B6A0C6A63
:102600003EEC05F015500101826F1650836F000EED
:10261000835DD8A40EEF13F0420E825DD8B419EF9B
:1026200013F0D8A019EF13F0FF0E0001B66F8BEF77
:1026300013F07E51096E7F510A6E0B6A0C6A640EAC
:102640000D6E0E6A0F6A106A23EC05F0115001013D
:10265000806F1250816F7C51116E7D51126E136A22
:10266000146A8051096E81510A6E0B6A0C6A3EEC45
:1026700005F015500101826F1650836FDA0EF66E69
:10268000000EF76E000EF86E8251F6268351F72287
:10269000000E006E0050F8220900F5500001B66FE0
:1026A00001017E51096E7F510A6E0B6A0C6A640E3D
:1026B0000D6E0E6A0F6A106A23EC05F011500101CD
:1026C000806F1250816F7C51116E7D51126E136AB2
:1026D000146A8051096E81510A6E0B6A0C6A3EECD5
:1026E00005F015500101826F1650836F000E835D57
:1026F000D8A47DEF13F0010E825DD8B486EF13F0FD
:10270000D8B086EF13F00B0E0001B66F8BEF13F00D
:102710000A0E0001B66F01017E517F11D8A494EF1B
:1027200013F00A0E0001B66F320E0001B65DD8B488
:102730009EEF13F0D8A09EEF13F0C2850A0E116E23
:10274000126A136A146AB651096E0A6A0B6A0C6A35
:102750003EEC05F015500001B86F0A0E116E126ABA
:10276000136A146AB651096E0A6A0B6A0C6A3EEC67
:1027700005F015500101806F8051096E0A6A0B6ADD
:102780000C6A0A0E0D6E0E6A0F6A106A23EC05F0D1
:1027900011500101816FD8800001B65101018155AE
:1027A0000001B76F12007BB12AEF14F00A0E116E10
:1027B000126A136A146A5250096E53500A6E5450CA
:1027C0000B6E55500C6E3EEC05F015500101736F09
:1027D0001650746F1750756F1850766F0A0E116E81
:1027E000126A136A146A5650096E57500A6E58508E
:1027F0000B6E59500C6E3EEC05F015500101776FD1
:102800001650786F1750796F18507A6F1E0EF66E4B
:10281000010EF76E000EF86E7351F6267451F72212
:102820007551F8220900F5507C6F7D6B1E0EF66E17
:10283000010EF76E000EF86E7751F6267851F722EA
:102840007951F8220900F5507E6F7F6BCBEC12F0C6
:102850007DEF14F00A0E116E126A136A146A5E504C
:10286000096E5F500A6E60500B6E61500C6E3EEC4C
:1028700005F015500101736F1650746F1750756F86
:102880001850766F0A0E116E126A136A146A0001EC
:102890006251096E63510A6E64510B6E65510C6E84
:1028A0003EEC05F015500101776F1650786F175008
:1028B000796F18507A6F1E0EF66E010EF76E000ECD
:1028C000F86E7351F6267451F7227551F8220900FB
:1028D000F5507C6F7D6B1E0EF66E010EF76E000ECE
:1028E000F86E7751F6267851F7227951F8220900CF
:1028F000F5507E6F7F6BCBEC12F0FF0E0001B65DE2
:10290000D8A496EF14F0B00E02014F6F140E506F62
:10291000000E516F050E526F536B7C0E546F000EFC
:10292000556F000E4009566F0EEF06F0B00E020113
:102930004F6F140E506F000E516F020E526F536B9B
:10294000700E546F000E556F000E4009566F0EEC5E
:1029500006F0B00E0201336F140E346F000E356FA7
:102960000001B8510201366F376BEFEC06F0B00E84
:1029700002014F6F140E506F000E516F010E526F17
:10298000536B740E546F000E556F000E4009566F56
:102990000EEC06F0B00E0201336F140E346F000E11
:1029A000356F0001B7510201366F376BEFEF06F05C
:1029B00081B0F7EF14F081BAEAEF14F081B8E5EFD7
:1029C00014F00001BF6B12EF15F0010E0001BF6F94
:1029D00012EF15F081B8F2EF14F0020E0001BF6F94
:1029E00012EF15F0030E0001BF6F12EF15F081BA60
:1029F00007EF15F081B802EF15F0040E0001BF6F6C
:102A000012EF15F0050E0001BF6F12EF15F081B83F
:102A10000FEF15F0060E0001BF6F12EF15F0060E56
:102A20000001BF6F80BC2CEF15F080BA20EF15F0CD
:102A300080B81DEF15F0C06B1200010EC06F1200C0
:102A400080BA40EF15F080B829EF15F0020EC06F84
:102A50001200030EC06F120080BA38EF15F080B874
:102A600035EF15F0040EC06F1200050EC06F120096
:102A700080B83EEF15F0060EC06F1200060EC06F54
:102A8000120072B1F2EF15F00001BF51D8A45CEF53
:102A900015F0B00E02014F6F140E506F000E516F03
:102AA000030E526F536BBE0E546F000E556F000E27
:102AB0004009566F0EEC06F0010E0001BF5DD8A470
:102AC00075EF15F0B00E02014F6F140E506F000E2F
:102AD000516F030E526F536BC20E546F000E556F41
:102AE000000E4009566F0EEC06F0020E0001BF5DAD
:102AF000D8A48EEF15F0B00E02014F6F140E506F78
:102B0000000E516F030E526F536BC60E546F000EC2
:102B1000556F000E4009566F0EEC06F0030E0001D3
:102B2000BF5DD8A4A7EF15F0B00E02014F6F140ED1
:102B3000506F000E516F030E526F536BCA0E546FDD
:102B4000000E556F000E4009566F0EEC06F0040E95
:102B50000001BF5DD8A4C0EF15F0B00E02014F6FA9
:102B6000140E506F000E516F030E526F536BCE0E4A
:102B7000546F000E556F000E4009566F0EEC06F0B4
:102B8000050E0001BF5DD8A4D9EF15F0B00E02010B
:102B90004F6F140E506F000E516F040E526F536B37
:102BA000D20E546F000E556F000E4009566F0EEC9A
:102BB00006F0060E0001BF5DD8A4A0EF16F0B00E1F
:102BC00002014F6F140E506F000E516F030E526FC3
:102BD000536BD60E546F000E556F000E4009566FA2
:102BE0000EEF06F00001C051D8A40AEF16F0B00EA7
:102BF00002014F6F140E506F000E516F030E526F93
:102C0000536BBE0E546F000E556F000E4009566F89
:102C10000EEC06F0010E0001C05DD8A423EF16F003
:102C2000B00E02014F6F140E506F000E516F030E65
:102C3000526F536BC20E546F000E556F000E400959
:102C4000566F0EEC06F0020E0001C05DD8A43CEFFA
:102C500016F0B00E02014F6F140E506F000E516F40
:102C6000030E526F536BC60E546F000E556F000E5D
:102C70004009566F0EEC06F0030E0001C05DD8A4AB
:102C800055EF16F0B00E02014F6F140E506F000E8C
:102C9000516F030E526F536BCA0E546F000E556F77
:102CA000000E4009566F0EEC06F0040E0001C05DE8
:102CB000D8A46EEF16F0B00E02014F6F140E506FD5
:102CC000000E516F030E526F536BCE0E546F000EF9
:102CD000556F000E4009566F0EEC06F0050E000110
:102CE000C05DD8A487EF16F0B00E02014F6F140E2E
:102CF000506F000E516F040E526F536BD20E546F13
:102D0000000E556F000E4009566F0EEC06F0060ED1
:102D10000001C05DD8A4A0EF16F0B00E02014F6F05
:102D2000140E506F000E516F030E526F536BD60E80
:102D3000546F000E556F000E4009566F0EEF06F0EF
:102D40001200666F010E496E6651676F3F0E662571
:102D5000686FA86B6851A96F3F0EAA6F67510BECA3
:102D60000FF001016651676F3F0E6625686F340EE4
:102D7000A86F6851A96F3F0EAA6F67510BEC0FF057
:102D800001016651676F030E6625686F310EA86FEB
:102D90006851A96F340EAA6F67510BEC0FF03C0E0F
:102DA00001016625676F3F0E6625686F310EA86FBB
:102DB0006851A96F340EAA6F67510BEC0FF0496A86
:102DC00001016629676F3E0E6625686F350EA86F94
:102DD0006851A96F3E0EAA6F67510BEC0FF0010E00
:102DE000496E020E01016625696F360E6D6F6951DD
:102DF0004A6E6D514B6E6651D8A404EF17F0729174
:102E000041EC15F007EF17F0728141EC15F02B0E35
:102E1000010166256A6F360E6E6F6A514A6E6E51F9
:102E20004B6EB00E02014F6F140E506F000E516FBB
:102E3000030E526F536B780E546F000E556F000ED9
:102E40004009566F0EEC06F01F0E010166256B6FF0
:102E5000390E6F6F030E706F6F51CA6F7051CB6F69
:102E60007051CC6F6B518EEC0BF01E0E010166257C
:102E7000676F200E6625686F370EAC6F6851AD6FB7
:102E80003B0EAE6F675105EC0EF0020E0101662598
:102E90006C6F020E716F6C514A6E71514B6E6651C0
:102EA000D8A46AEF17F0B00E02014F6F140E506FE6
:102EB000000E516F020E526F536B820E546F000E54
:102EC000556F000E4009566F0EEC06F001017B9124
:102ED000D3EF13F0B00E02014F6F140E506F000EBF
:102EE000516F020E526F536B840E546F000E556F6C
:102EF000000E4009566F0EEC06F001017B81D3EF06
:102F000013F0646F65B1C0EF17F00001C2B18DEF2F
:102F100017F0010165958FEF17F001016585645188
:102F20006587D8B46597658965B565A7659965A90D
:102F3000ADEF17F0B00E02014F6F140E506F000E80
:102F4000516F030E526F536B6C0E546F000E556F22
:102F5000000E4009566F0EEF06F0B00E02014F6FE3
:102F6000140E506F000E516F020E526F536B6A0EAB
:102F7000546F000E556F000E4009566F0EEF06F0AD
:102F80000001C2B3C8EF17F00101659BCAEF17F04B
:102F90000101658B6451658DD8B4659D658F65BBF6
:102FA00065AD659F65AFE8EF17F0B00E02014F6F9A
:102FB000140E506F000E516F030E526F536B6C0E58
:102FC000546F000E556F000E4009566F0EEF06F05D
:102FD000B00E02014F6F140E506F000E516F020EB3
:102FE000526F536B6A0E546F000E556F000E4009FE
:102FF000566F0EEF06F0566F020E56255B6F050EEC
:10300000606F5B514A6E60514B6E72915FB172811D
:1030100041EC15F001015FB123EF18F0B00E020191
:103020004F6F140E506F000E516F020E526F536BA4
:10303000820E546F000E556F000E4009566F0EEC55
:1030400006F036EF18F0B00E02014F6F140E506FFD
:10305000000E516F020E526F536B840E546F000EB0
:10306000556F000E4009566F0EEC06F001015FB17E
:1030700064EF18F00A0E116E126A136A146A525045
:10308000096E53500A6E54500B6E55500C6E3EEC48
:1030900005F015500101576F1650586F1750596FB2
:1030A00018505A6F1E0EF66E010EF76E000EF86E77
:1030B0005751F6265851F7225951F8220900F55078
:1030C0004C6E4D6A8CEF18F00A0E116E126A136A7C
:1030D000146A5E50096E5F500A6E60500B6E61504C
:1030E0000C6E3EEC05F015500101576F1650586FED
:1030F0001750596F18505A6F1E0EF66E010EF76E6C
:10310000000EF86E5751F6265851F7225951F82201
:103110000900F5504C6E4D6AB00E0201336F140E6B
:10312000346F000E356F4C50366F4D50376FEFECEB
:1031300006F0010165915FB165814C5081EC17F09B
:10314000000E4D5CD8A4A7EF18F00A0E4C5CD8B462
:10315000C0EF18F0D8B0C0EF18F0B00E02014F6FFA
:10316000140E506F000E516F010E526F536B720EA2
:10317000546F000E556F000E4009566F0EEC06F0AE
:10318000020E010156255C6F140E616F5C514A6E90
:1031900061514B6EB00E02014F6F140E506F000E56
:1031A000516F050E526F536B580E546F000E556FD2
:1031B000000E4009566F0EEC06F001015FB10BEFF7
:1031C00019F00A0E116E126A136A146A5650096ECB
:1031D00057500A6E58500B6E59500C6E3EEC05F06D
:1031E00015500101576F1650586F1750596F1850EE
:1031F0005A6F1E0EF66E010EF76E000EF86E5751E6
:10320000F6265851F7225951F8220900F5504C6E14
:103210004D6A34EF19F00A0E116E126A136A146ABD
:1032200000016251096E63510A6E64510B6E655163
:103230000C6E3EEC05F015500101576F1650586F9B
:103240001750596F18505A6F1E0EF66E010EF76E1A
:10325000000EF86E5751F6265851F7225951F822B0
:103260000900F5504C6E4D6AB00E0201336F140E1A
:10327000346F000E356F4C50366F4D50376FEFEC9A
:1032800006F0010165915FB165814C5081EC17F04A
:10329000000E4D5CD8A44FEF19F00A0E4C5CD8B468
:1032A00068EF19F0D8B068EF19F0B00E02014F6F57
:1032B000140E506F000E516F010E526F536B720E51
:1032C000546F000E556F000E4009566F0EEC06F05D
:1032D000020E010156255D6F230E626F5D514A6E2D
:1032E00062514B6EB00E02014F6F140E506F000E04
:1032F000516F050E526F536B640E546F000E556F75
:10330000000E4009566F0EEC06F001015FB1B3EFFD
:1033100019F00A0E116E126A136A146A5A50096E75
:103320005B500A6E5C500B6E5D500C6E3EEC05F00F
:1033300015500101576F1650586F1750596F18509C
:103340005A6F1E0EF66E010EF76E000EF86E575194
:10335000F6265851F7225951F8220900F5504C6EC3
:103360004D6ADCEF19F00A0E116E126A136A146AC4
:1033700000016651096E67510A6E68510B6E695102
:103380000C6E3EEC05F015500101576F1650586F4A
:103390001750596F18505A6F1E0EF66E010EF76EC9
:1033A000000EF86E5751F6265851F7225951F8225F
:1033B0000900F5504C6E4D6AB00E0201336F140EC9
:1033C000346F000E356F4C50366F4D50376FEFEC49
:1033D00006F0010165915FB165814C5081EC17F0F9
:1033E000000E4D5CD8A4F7EF19F00A0E4C5CD8B46F
:1033F00010EF1AF0D8B010EF1AF0B00E02014F6FB4
:10340000140E506F000E516F010E526F536B720EFF
:10341000546F000E556F000E4009566F0EEC06F00B
:10342000020E010156255E6F320E636F5E514A6EC9
:1034300063514B6EB00E02014F6F140E506F000EB1
:10344000516F050E526F536B5E0E546F000E556F29
:10345000000E4009566F0EEC06F001017B915FB142
:103460007B81D3EF13F0020E0101346F356B3451C1
:103470004A6E35514B6E0001BF51D8A453EF1AF07C
:10348000B00E02014F6F140E506F000E516F030EFD
:10349000526F536BBE0E546F000E556F000E4009F5
:1034A000566F0EEC06F0010E0001BF5DD8A46CEF64
:1034B0001AF0B00E02014F6F140E506F000E516FD4
:1034C000030E526F536BC20E546F000E556F000EF9
:1034D0004009566F0EEC06F0020E0001BF5DD8A445
:1034E00085EF1AF0B00E02014F6F140E506F000EF0
:1034F000516F030E526F536BC60E546F000E556F13
:10350000000E4009566F0EEC06F0030E0001BF5D81
:10351000D8A49EEF1AF0B00E02014F6F140E506F38
:10352000000E516F030E526F536BCA0E546F000E94
:10353000556F000E4009566F0EEC06F0040E0001A8
:10354000BF5DD8A4B7EF1AF0B00E02014F6F140E92
:10355000506F000E516F030E526F536BCE0E546FAF
:10356000000E556F000E4009566F0EEC06F0050E6A
:103570000001BF5DD8A4D0EF1AF0B00E02014F6F6A
:10358000140E506F000E516F040E526F536BD20E1B
:10359000546F000E556F000E4009566F0EEC06F08A
:1035A000060E0001BF5DD8A4E9EF1AF0B00E0201CB
:1035B0004F6F140E506F000E516F030E526F536B0E
:1035C000D60E546F000E556F000E4009566F0EEC6C
:1035D00006F0B00E02014F6F140E506F000E516FC7
:1035E000010E526F536B720E546F000E556F000E2A
:1035F0004009566F0EEC06F0B00E02014F6F140E2C
:10360000506F000E516F0B0E526F536B860E546F3E
:10361000000E556F000E4009566F0EEC06F00A0EB4
:10362000116E126A136A146A5250096E53500A6E70
:1036300054500B6E55500C6E3EEC05F015500101C8
:10364000296F16502A6F17502B6F18502C6F1E0EB3
:10365000F66E010EF76E000EF86E2951F6262A510D
:10366000F7222B51F8220900F5504C6E4D6AB00E2E
:103670000201336F140E346F000E356F4C50366FED
:103680004D50376FEFEC06F0B00E02014F6F140E85
:10369000506F000E516F020E526F536B6A0E546FD3
:1036A000000E556F000E4009566F0EEC06F0000E2E
:1036B0004D5CD8A45EEF1BF00A0E4C5CD8B477EFDB
:1036C0001BF0D8B077EF1BF0B00E02014F6F140E55
:1036D000506F000E516F010E526F536B720E546F8C
:1036E000000E556F000E4009566F0EEC06F0020EEC
:1036F0000101366F0A0E376F36514A6E37514B6EE5
:103700000001C051D8A498EF1BF0B00E02014F6F1A
:10371000140E506F000E516F030E526F536BBE0E9E
:10372000546F000E556F000E4009566F0EEC06F0F8
:10373000010E0001C05DD8A4B1EF1BF0B00E020174
:103740004F6F140E506F000E516F030E526F536B7C
:10375000C20E546F000E556F000E4009566F0EECEE
:1037600006F0020E0001C05DD8A4CAEF1BF0B00E37
:1037700002014F6F140E506F000E516F030E526F07
:10378000536BC60E546F000E556F000E4009566FF6
:103790000EEC06F0030E0001C05DD8A4E3EF1BF0B1
:1037A000B00E02014F6F140E506F000E516F030EDA
:1037B000526F536BCA0E546F000E556F000E4009C6
:1037C000566F0EEC06F0040E0001C05DD8A4FCEFAD
:1037D0001BF0B00E02014F6F140E506F000E516FB0
:1037E000030E526F536BCE0E546F000E556F000ECA
:1037F0004009566F0EEC06F0050E0001C05DD8A41E
:1038000015EF1CF0B00E02014F6F140E506F000E3A
:10381000516F040E526F536BD20E546F000E556FE2
:10382000000E4009566F0EEC06F0060E0001C05D5A
:10383000D8A42EEF1CF0B00E02014F6F140E506F83
:10384000000E516F030E526F536BD60E546F000E65
:10385000556F000E4009566F0EEC06F0B00E0201D7
:103860004F6F140E506F000E516F010E526F536B5D
:10387000720E546F000E556F000E4009566F0EEC1D
:1038800006F0B00E02014F6F140E506F000E516F14
:103890000B0E526F536B920E546F000E556F000E4D
:1038A0004009566F0EEC06F00A0E116E126A136A8A
:1038B000146A5E50096E5F500A6E60500B6E615064
:1038C0000C6E3EEC05F015500101296F16502A6F61
:1038D00017502B6F18502C6F1E0EF66E010EF76EE0
:1038E000000EF86E2951F6262A51F7222B51F822A4
:1038F0000900F5504C6E4D6AB00E0201336F140E84
:10390000346F000E356F4C50366F4D50376FEFEC03
:1039100006F0B00E02014F6F140E506F000E516F83
:10392000020E526F536B6A0E546F000E556F000EED
:103930004009566F0EEC06F0000E4D5CD8A4A3EFC4
:103940001CF00A0E4C5CD8B4BCEF1CF0D8B0BCEF35
:103950001CF0B00E02014F6F140E506F000E516F2D
:10396000010E526F536B720E546F000E556F000EA6
:103970004009566F0EEC06F0030E4F5CD8B4DBEF37
:103980001DF0D8B0DBEF1DF0020E0101386F190EEB
:10399000396F38514A6E39514B6EB00E02014F6F7C
:1039A000140E506F000E516F010E526F536B720E5A
:1039B000546F000E556F000E4009566F0EEC06F066
:1039C000B00E02014F6F140E506F000E516F030EB8
:1039D000526F536BBE0E546F000E556F000E4009B0
:1039E000566F0EEC06F0020E01013A6F230E3B6F8C
:1039F0003A514A6E3B514B6E010E4F5CD8A416EF04
:103A00001DF0B00E02014F6F140E506F000E516F7B
:103A1000010E526F536B760E546F000E556F000EF1
:103A20004009566F0EEC06F029EF1DF0B00E0201B2
:103A30004F6F140E506F000E516F010E526F536B8B
:103A4000720E546F000E556F000E4009566F0EEC4B
:103A500006F0B00E02014F6F140E506F000E516F42
:103A60000B0E526F536B9E0E546F000E556F000E6F
:103A70004009566F0EEC06F0B00E0201336F140EC3
:103A8000346F000E356F0001BA510201366F376B8B
:103A9000EFEC06F00A0E0001BA5DD8B466EF1DF037
:103AA000D8B066EF1DF0B00E02014F6F140E506FCC
:103AB000000E516F010E526F536B720E546F000E59
:103AC000556F000E4009566F0EEC06F0020E010114
:103AD0003C6F2D0E3D6F3C514A6E3D514B6E020EB8
:103AE0004F5CD8A489EF1DF0B00E02014F6F140E89
:103AF000506F000E516F010E526F536B760E546F64
:103B0000000E556F000E4009566F0EEC06F09CEF4C
:103B10001DF0B00E02014F6F140E506F000E516F6A
:103B2000010E526F536B720E546F000E556F000EE4
:103B30004009566F0EEC06F0B00E02014F6F140EE6
:103B4000506F000E516F0B0E526F536BAA0E546FD5
:103B5000000E556F000E4009566F0EEC06F0000186
:103B6000C2A7C8EF1DF0B00E02014F6F140E506FC8
:103B7000000E516F030E526F536BB60E546F000E52
:103B8000556F000E4009566F0EEC06F0DBEF1DF08E
:103B9000B00E02014F6F140E506F000E516F030EE6
:103BA000526F536BBA0E546F000E556F000E4009E2
:103BB000566F0EEC06F0030E4F5C01012F9BD8B43C
:103BC0002F8B040E4F5C2F9DD8B42F8D2F9F2FABC2
:103BD0002FBD2F8F2FAF03EF1FF0020E3E6F190E78
:103BE0003F6F3E514A6E3F514B6EB00E02014F6F18
:103BF000140E506F000E516F010E526F536B720E08
:103C0000546F000E556F000E4009566F0EEC06F013
:103C1000B00E02014F6F140E506F000E516F030E65
:103C2000526F536BC20E546F000E556F000E400959
:103C3000566F0EEC06F0020E0101406F230E416F2D
:103C400040514A6E41514B6E030E4F5CD8A43EEF7B
:103C50001EF0B00E02014F6F140E506F000E516F28
:103C6000010E526F536B760E546F000E556F000E9F
:103C70004009566F0EEC06F051EF1EF0B00E020137
:103C80004F6F140E506F000E516F010E526F536B39
:103C9000720E546F000E556F000E4009566F0EECF9
:103CA00006F0B00E02014F6F140E506F000E516FF0
:103CB0000B0E526F536B9E0E546F000E556F000E1D
:103CC0004009566F0EEC06F0B00E0201336F140E71
:103CD000346F000E356F0001BB510201366F376B38
:103CE000EFEC06F00A0E0001BB5DD8B48EEF1EF0BB
:103CF000D8B08EEF1EF0B00E02014F6F140E506F51
:103D0000000E516F010E526F536B720E546F000E06
:103D1000556F000E4009566F0EEC06F0020E0101C1
:103D2000426F2D0E436F42514A6E43514B6E040E4B
:103D30004F5CD8A4B1EF1EF0B00E02014F6F140E0D
:103D4000506F000E516F010E526F536B760E546F11
:103D5000000E556F000E4009566F0EEC06F0C4EFD2
:103D60001EF0B00E02014F6F140E506F000E516F17
:103D7000010E526F536B720E546F000E556F000E92
:103D80004009566F0EEC06F0B00E02014F6F140E94
:103D9000506F000E516F0B0E526F536BAA0E546F83
:103DA000000E556F000E4009566F0EEC06F0000134
:103DB000C2A9F0EF1EF0B00E02014F6F140E506F4B
:103DC000000E516F030E526F536BB60E546F000E00
:103DD000556F000E4009566F0EEC06F003EF1FF012
:103DE000B00E02014F6F140E506F000E516F030E94
:103DF000526F536BBA0E546F000E556F000E400990
:103E0000566F0EEC06F0050E4F5C01013099D8B4E8
:103E10003089060E4F5C309BD8B4308B309D30A972
:103E200030BB308D30AD2BEF20F0020E446F190EF9
:103E3000456F44514A6E45514B6EB00E02014F6FB3
:103E4000140E506F000E516F010E526F536B720EB5
:103E5000546F000E556F000E4009566F0EEC06F0C1
:103E6000B00E02014F6F140E506F000E516F030E13
:103E7000526F536BC60E546F000E556F000E400903
:103E8000566F0EEC06F0020E0101466F230E476FCF
:103E900046514A6E47514B6E050E4F5CD8A466EFF3
:103EA0001FF0B00E02014F6F140E506F000E516FD5
:103EB000010E526F536B760E546F000E556F000E4D
:103EC0004009566F0EEC06F079EF1FF0B00E0201BC
:103ED0004F6F140E506F000E516F010E526F536BE7
:103EE000720E546F000E556F000E4009566F0EECA7
:103EF00006F0B00E02014F6F140E506F000E516F9E
:103F00000B0E526F536B9E0E546F000E556F000ECA
:103F10004009566F0EEC06F0B00E0201336F140E1E
:103F2000346F000E356F0001BC510201366F376BE4
:103F3000EFEC06F00A0E0001BC5DD8B4B6EF1FF03E
:103F4000D8B0B6EF1FF0B00E02014F6F140E506FD5
:103F5000000E516F010E526F536B720E546F000EB4
:103F6000556F000E4009566F0EEC06F0020E01016F
:103F7000486F2D0E496F48514A6E49514B6E060EDF
:103F80004F5CD8A4D9EF1FF0B00E02014F6F140E92
:103F9000506F000E516F010E526F536B760E546FBF
:103FA000000E556F000E4009566F0EEC06F0ECEF58
:103FB0001FF0B00E02014F6F140E506F000E516FC4
:103FC000010E526F536B720E546F000E556F000E40
:103FD0004009566F0EEC06F0B00E02014F6F140E42
:103FE000506F000E516F0B0E526F536BAA0E546F31
:103FF000000E556F000E4009566F0EEC06F00001E2
:10400000C2AB18EF20F0B00E02014F6F140E506FCC
:10401000000E516F030E526F536BB60E546F000EAD
:10402000556F000E4009566F0EEC06F02BEF20F096
:10403000B00E02014F6F140E506F000E516F030E41
:10404000526F536BBA0E546F000E556F000E40093D
:10405000566F0EEC06F0070E4F5C01013197D8B495
:104060003187080E4F5C3199D8B43189319B31A723
:1040700031B9318B31AB53EF21F0020E4A6F190E7B
:104080004B6F4A514A6E4B514B6EB00E02014F6F4F
:10409000140E506F000E516F010E526F536B720E63
:1040A000546F000E556F000E4009566F0EEC06F06F
:1040B000B00E02014F6F140E506F000E516F030EC1
:1040C000526F536BCA0E546F000E556F000E4009AD
:1040D000566F0EEC06F0020E01014C6F230E4D6F71
:1040E0004C514A6E4D514B6E070E4F5CD8A48EEF6B
:1040F00020F0B00E02014F6F140E506F000E516F82
:10410000010E526F536B760E546F000E556F000EFA
:104110004009566F0EEC06F0A1EF20F0B00E020140
:104120004F6F140E506F000E516F010E526F536B94
:10413000720E546F000E556F000E4009566F0EEC54
:1041400006F0B00E02014F6F140E506F000E516F4B
:104150000B0E526F536B9E0E546F000E556F000E78
:104160004009566F0EEC06F0B00E0201336F140ECC
:10417000346F000E356F0001BD510201366F376B91
:10418000EFEC06F00A0E0001BD5DD8B4DEEF20F0C2
:10419000D8B0DEEF20F0B00E02014F6F140E506F5A
:1041A000000E516F010E526F536B720E546F000E62
:1041B000556F000E4009566F0EEC06F0020E01011D
:1041C0004E6F2D0E4F6F4E514A6E4F514B6E080E73
:1041D0004F5CD8A401EF21F0B00E02014F6F140E16
:1041E000506F000E516F010E526F536B760E546F6D
:1041F000000E556F000E4009566F0EEC06F014EFDE
:1042000021F0B00E02014F6F140E506F000E516F6F
:10421000010E526F536B720E546F000E556F000EED
:104220004009566F0EEC06F0B00E02014F6F140EEF
:10423000506F000E516F0B0E526F536BAA0E546FDE
:10424000000E556F000E4009566F0EEC06F000018F
:10425000C2AD40EF21F0B00E02014F6F140E506F4F
:10426000000E516F030E526F536BB60E546F000E5B
:10427000556F000E4009566F0EEC06F053EF21F01B
:10428000B00E02014F6F140E506F000E516F030EEF
:10429000526F536BBA0E546F000E556F000E4009EB
:1042A000566F0EEC06F0090E4F5C01013295D8B442
:1042B00032850A0E4F5C3297D8B43287329932A5D4
:1042C00032B7328932A979EF22F0020E506F190EFF
:1042D000516F50514A6E51514B6EB00E02014F6FEB
:1042E000140E506F000E516F010E526F536B720E11
:1042F000546F000E556F000E4009566F0EEC06F01D
:10430000B00E02014F6F140E506F000E516F030E6E
:10431000526F536BCE0E546F000E556F000E400956
:10432000566F0EEC06F0020E0101526F230E536F12
:1043300052514A6E53514B6E090E4F5CD8A4B6EFE2
:1043400021F0B00E02014F6F140E506F000E516F2E
:10435000010E526F536B760E546F000E556F000EA8
:104360004009566F0EEC06F0C9EF21F0B00E0201C5
:104370004F6F140E506F000E516F010E526F536B42
:10438000720E546F000E556F000E4009566F0EEC02
:1043900006F0B00E02014F6F140E506F000E516FF9
:1043A0000B0E526F536B9E0E546F000E556F000E26
:1043B0004009566F0EEC06F0B00E0201336F140E7A
:1043C000346F000E356F0001BE510201366F376B3E
:1043D000EFEC06F00A0E0001BE5DD8B406EF22F045
:1043E000D8B006EF22F0B00E02014F6F140E506FDE
:1043F000000E516F010E526F536B720E546F000E10
:10440000556F000E4009566F0EEC06F0020E0101CA
:10441000546F2D0E556F54514A6E55514B6E0A0E06
:104420004F5CD8A429EF22F0B00E02014F6F140E9A
:10443000506F000E516F010E526F536B760E546F1A
:10444000000E556F000E4009566F0EEC06F03CEF63
:1044500022F0B00E02014F6F140E506F000E516F1C
:10446000010E526F536B720E546F000E556F000E9B
:104470004009566F0EEC06F0B00E02014F6F140E9D
:10448000506F000E516F0B0E526F536BAA0E546F8C
:10449000000E556F000E4009566F0EEC06F000013D
:1044A000C2AF66EF22F0B00E02014F6F140E506FD4
:1044B000000E516F030E526F536BB60E546F000E09
:1044C000556F000E4009566F0EEF06F0B00E020158
:1044D0004F6F140E506F000E516F030E526F536BDF
:1044E000BA0E546F000E556F000E4009566F0EEF56
:1044F00006F01200F2B2F292F0A086EF22F0B9516B
:10450000D8A485EF22F0010EB96FF090F0A297EFDA
:1045100022F0B951D8A496EF22F081B494EF22F0A2
:10452000020EB96F96EF22F0030EB96FF0921100F0
:10453000000E9BEC10F009500001826F0A50836F4F
:10454000846B856B010E9BEC10F009500001866FA7
:104550000A50876F886B896B020E9BEC10F0095034
:1045600000018A6F0A508B6F8C6B8D6B030E9BEC76
:1045700010F0095000018E6F0A508F6F906B916B95
:10458000040E9BEC10F009500001926F0A50936FDB
:10459000946B956B050E9BEC10F009500001966F23
:1045A0000A50976F986B996B85519D5DD8A4E5EF84
:1045B00022F084519C5DD8A4E5EF22F083519B5DED
:1045C000D8A4E5EF22F082519A5DD8B4F3EF22F03F
:1045D000D8B0F3EF22F082519A6F83519B6F8451D0
:1045E0009C6F85519D6F8951A15DD8A404EF23F084
:1045F0008851A05DD8A404EF23F087519F5DD8A413
:1046000004EF23F086519E5DD8B412EF23F0D8B0AA
:1046100012EF23F086519E6F87519F6F8851A06FD4
:104620008951A16F8D51A55DD8A423EF23F08C5142
:10463000A45DD8A423EF23F08B51A35DD8A423EF6E
:1046400023F08A51A25DD8B431EF23F0D8B031EF16
:1046500023F08A51A26F8B51A36F8C51A46F8D519F
:10466000A56F9151A95DD8A442EF23F09051A85DA8
:10467000D8A442EF23F08F51A75DD8A442EF23F0D6
:104680008E51A65DD8B450EF23F0D8B050EF23F090
:104690008E51A66F8F51A76F9051A86F9151A96F3E
:1046A0009551AD5DD8A461EF23F09451AC5DD8A4D1
:1046B00061EF23F09351AB5DD8A461EF23F09251E9
:1046C000AA5DD8B46FEF23F0D8B06FEF23F092510A
:1046D000AA6F9351AB6F9451AC6F9551AD6F9951D7
:1046E000B15DD8A480EF23F09851B05DD8A480EFDD
:1046F00023F09751AF5DD8A480EF23F09651AE5DC3
:10470000D8B48EEF23F0D8B08EEF23F09651AE6F71
:104710009751AF6F9851B06F9951B16F1200010E60
:10472000B95DD8A407EF24F0070E4E5CD8B4A0EF13
:1047300023F0D8B0A0EF23F0070E4E6E03EF24F065
:104740004F2A0B0E4F5CD8A403EF24F001019C6BA1
:104750009D6B0001BA5143EC0FF0010E01019C6FFB
:104760009D6B0001BB5143EC0FF0020E01019C6FE9
:104770009D6B0001BC5143EC0FF0030E01019C6FD7
:104780009D6B0001BD5143EC0FF0040E01019C6FC5
:104790009D6B0001BE5143EC0FF0050E01019C6FB3
:1047A0009D6B000E0001C2B7010E43EC0FF0060E28
:1047B00001019C6F9D6B000E0001C2B9010E43EC1C
:1047C0000FF0070E01019C6F9D6B000E0001C2BB34
:1047D000010E43EC0FF0080E01019C6F9D6B000E63
:1047E0000001C2BD010E43EC0FF0090E01019C6FE8
:1047F0009D6B000E0001C2BF010E43EC0FF0010ED5
:104800004E6E010E4F6E0001B96BA5EC09F0020E61
:104810000001B95DD8A488EF24F0070E4E5CD8A43F
:104820007DEF24F0010E4F5CD8A418EF24F0BA2BD2
:10483000020E4F5CD8A427EF24F0000EC2B7010E81
:10484000096E09280A6E0A50C297D8A4C287030EBF
:104850004F5CD8A42DEF24F0BB2B040E4F5CD8A4E2
:104860003CEF24F0000EC2B9010E096E09280A6E51
:104870000A50C299D8A4C289050E4F5CD8A442EF51
:1048800024F0BC2B060E4F5CD8A451EF24F0000E90
:10489000C2BB010E096E09280A6E0A50C29BD8A439
:1048A000C28B070E4F5CD8A457EF24F0BD2B080E27
:1048B0004F5CD8A466EF24F0000EC2BD010E096E55
:1048C00009280A6E0A50C29DD8A4C28D090E4F5CF9
:1048D000D8A46CEF24F0BE2B0A0E4F5CD8A485EF51
:1048E00024F0000EC2BF010E096E09280A6E0A509C
:1048F000C29FD8A4C28F85EF24F04E2A070E4E5CCB
:10490000D8A485EF24F0010E4E6EB96BA5EC09F02A
:10491000030E0001B95DD8A408EF25F0070E4E5C28
:10492000D8A4FEEF24F0010E4F5CD8A499EF24F038
:10493000BA07020E4F5CD8A4A8EF24F0000EC2B74D
:10494000010E096E09040A6E0A50C297D8A4C287E4
:10495000030E4F5CD8A4AEEF24F0BB07040E4F5CEF
:10496000D8A4BDEF24F0000EC2B9010E096E0904EF
:104970000A6E0A50C299D8A4C289050E4F5CD8A409
:10498000C3EF24F0BC07060E4F5CD8A4D2EF24F08E
:10499000000EC2BB010E096E09040A6E0A50C29BCA
:1049A000D8A4C28B070E4F5CD8A4D8EF24F0BD0763
:1049B000080E4F5CD8A4E7EF24F0000EC2BD010E34
:1049C000096E09040A6E0A50C29DD8A4C28D090E50
:1049D0004F5CD8A4EDEF24F0BE070A0E4F5CD8A4BC
:1049E00005EF25F0000EC2BF010E096E09040A6E24
:1049F0000A50C29FD8A4C28F05EF25F04E064E5034
:104A0000D8A405EF25F0060E4E6EB96BA5EF09F0A0
:104A10001200D8EC14F098EC22F00001B951D8A49F
:104A20008FEC23F098EC22F00001C2A52BEF25F0CB
:104A300082AC1FEF25F00101009521EF25F0010167
:104A4000008500B527EF25F08B9C28EF25F08B8C97
:104A50008B9E3CEF25F082AE32EF25F001010097EE
:104A600034EF25F00101008700B73AEF25F08B9E67
:104A70003BEF25F08B8E8B9C98EC22F00001C295C9
:104A8000010E4E5C01010099D8B40089030E4E5C02
:104A9000009BD8B4008B009D00A900BB008D040EC4
:104AA0004E5C009FD8B4008F019100AD00BF018122
:104AB00001A15EEF25F0000EA1EC16F098EC22F0BB
:104AC000010E4E5C01010193D8B40183050E4E5CCA
:104AD0000195D8B40185019701A301B50187060EA0
:104AE0004E5C0199D8B40189019B01A701B9018BE2
:104AF00001AB7EEF25F0400EA1EC16F098EC22F011
:104B000000019A51526E9B51536E9C51546E9D51AF
:104B1000556E9E51566E9F51576EA051586EA151C1
:104B2000596EA2515E6EA3515F6EA451606EA55185
:104B3000616EA651626FA751636FA851646FA9514E
:104B4000656FAA51666FAB51676FAC51686FAD511D
:104B5000696F826B836B846B856B866B876B886BED
:104B6000896B8A6B8B6B8C6B8D6B8E6B8F6B906B89
:104B7000916B926B936B946B956B966B976B986B39
:104B8000996B9A6B9B6B9C6B9D6B9E6B9F6BA06BE9
:104B9000A16BA26BA36BA46BA56BA66BA76BA86B99
:104BA000A96BAA6BAB6BAC6BAD6BAE6BAF6BB06B49
:104BB000B16B98EC22F00001BF51D8A489EF26F028
:104BC000000E555CD8A4F1EF25F0000E545CD8A47B
:104BD000F1EF25F0030E535CD8A4F1EF25F0200E81
:104BE000525CD8B4FBEF25F0D8A0FBEF25F0C281D2
:104BF0008A8C29EF26F0C2A116EF26F0000E555C34
:104C0000D8A40FEF26F0000E545CD8A40FEF26F0C6
:104C1000000E535CD8A40FEF26F0460E525CD8B4B9
:104C200016EF26F0D8B016EF26F0C291C2B129EFE8
:104C300026F0C2B720EF26F00101029722EF26F0FE
:104C40000101028702B728EF26F08A9C29EF26F09F
:104C50008A8C5250096E53500A6E54500B6E555048
:104C60000C6E0001BA510D6E0E6A0F6A106A23ECC9
:104C700005F011500001F66F1250F76F1350F86FE6
:104C80001450F96F640E116E126A136A146AF651A9
:104C9000096EF7510A6EF8510B6EF9510C6E3EEC2D
:104CA00005F01550526E1650536E1750546E185032
:104CB000556E5650096E57500A6E58500B6E59502B
:104CC0000C6E0001BA510D6E0E6A0F6A106A23EC69
:104CD00005F011500001F66F1250F76F1350F86F86
:104CE0001450F96F640E116E126A136A146AF65149
:104CF000096EF7510A6EF8510B6EF9510C6E3EECCD
:104D000005F01550566E1650576E1750586E1850C5
:104D1000596E98EC22F0010E0001BF5DD8A401EF9E
:104D200027F0C2B998EF26F00101029B9AEF26F016
:104D30000101028B02BBA0EF26F08A9CA1EF26F0B6
:104D40008A8C5250096E53500A6E54500B6E555057
:104D50000C6E0001BB510D6E0E6A0F6A106A23ECD7
:104D600005F011500001F66F1250F76F1350F86FF5
:104D70001450F96F640E116E126A136A146AF651B8
:104D8000096EF7510A6EF8510B6EF9510C6E3EEC3C
:104D900005F01550526E1650536E1750546E185041
:104DA000556E5650096E57500A6E58500B6E59503A
:104DB0000C6E0001BB510D6E0E6A0F6A106A23EC77
:104DC00005F011500001F66F1250F76F1350F86F95
:104DD0001450F96F640E116E126A136A146AF65158
:104DE000096EF7510A6EF8510B6EF9510C6E3EECDC
:104DF00005F01550566E1650576E1750586E1850D5
:104E0000596E98EC22F0020E0001BF5DD8A479EF34
:104E100027F0C2BB10EF27F00101029F12EF27F02D
:104E20000101028F02BF18EF27F08A9C19EF27F0CB
:104E30008A8C5250096E53500A6E54500B6E555066
:104E40000C6E0001BC510D6E0E6A0F6A106A23ECE5
:104E500005F011500001F66F1250F76F1350F86F04
:104E60001450F96F640E116E126A136A146AF651C7
:104E7000096EF7510A6EF8510B6EF9510C6E3EEC4B
:104E800005F01550526E1650536E1750546E185050
:104E9000556E5650096E57500A6E58500B6E595049
:104EA0000C6E0001BC510D6E0E6A0F6A106A23EC85
:104EB00005F011500001F66F1250F76F1350F86FA4
:104EC0001450F96F640E116E126A136A146AF65167
:104ED000096EF7510A6EF8510B6EF9510C6E3EECEB
:104EE00005F01550566E1650576E1750586E1850E4
:104EF000596E98EC22F0030E0001BF5DD8A4F1EFCB
:104F000027F0C2BD88EF27F0010103938AEF27F055
:104F10000101038303B390EF27F08A9C91EF27F000
:104F20008A8C5250096E53500A6E54500B6E555075
:104F30000C6E0001BD510D6E0E6A0F6A106A23ECF3
:104F400005F011500001F66F1250F76F1350F86F13
:104F50001450F96F640E116E126A136A146AF651D6
:104F6000096EF7510A6EF8510B6EF9510C6E3EEC5A
:104F700005F01550526E1650536E1750546E18505F
:104F8000556E5650096E57500A6E58500B6E595058
:104F90000C6E0001BD510D6E0E6A0F6A106A23EC93
:104FA00005F011500001F66F1250F76F1350F86FB3
:104FB0001450F96F640E116E126A136A146AF65176
:104FC000096EF7510A6EF8510B6EF9510C6E3EECFA
:104FD00005F01550566E1650576E1750586E1850F3
:104FE000596E98EC22F0040E0001BF5DD8A469EF61
:104FF00028F0C2BF00EF28F00101039702EF28F06C
:105000000101038703B708EF28F08A9C09EF28F015
:105010008A8C5250096E53500A6E54500B6E555084
:105020000C6E0001BE510D6E0E6A0F6A106A23EC01
:1050300005F011500001F66F1250F76F1350F86F22
:105040001450F96F640E116E126A136A146AF651E5
:10505000096EF7510A6EF8510B6EF9510C6E3EEC69
:1050600005F01550526E1650536E1750546E18506E
:10507000556E5650096E57500A6E58500B6E595067
:105080000C6E0001BE510D6E0E6A0F6A106A23ECA1
:1050900005F011500001F66F1250F76F1350F86FC2
:1050A0001450F96F640E116E126A136A146AF65185
:1050B000096EF7510A6EF8510B6EF9510C6E3EEC09
:1050C00005F01550566E1650576E1750586E185002
:1050D000596E98EC22F0060E0001BF5DD8A47AEF5D
:1050E00028F08A9C526A536A546A556A566A576A0B
:1050F000586A596A98EC22F00001C051D8A42BEFED
:1051000029F0000E615CD8A492EF28F0000E605CDC
:10511000D8A492EF28F0030E5F5CD8A492EF28F099
:10512000200E5E5CD8B49CEF28F0D8A09CEF28F04D
:10513000C2838A8ECAEF28F0C2A3B7EF28F0000E10
:10514000615CD8A4B0EF28F0000E605CD8A4B0EF8A
:1051500028F0000E5F5CD8A4B0EF28F0460E5E5C2D
:10516000D8B4B7EF28F0D8B0B7EF28F0C293C2B3E5
:10517000CAEF28F0C2B7C1EF28F001010495C3EFD0
:1051800028F00101048504B5C9EF28F08A9ECAEF12
:1051900028F08A8E5E50096E5F500A6E60500B6E6A
:1051A00061500C6E0001BA510D6E0E6A0F6A106AE2
:1051B00023EC05F011500001F66F1250F76F1350F9
:1051C000F86F1450F96F640E116E126A136A146A44
:1051D000F651096EF7510A6EF8510B6EF9510C6ECB
:1051E0003EEC05F015505E6E16505F6E1750606E07
:1051F0001850616E00016251096E63510A6E64516C
:105200000B6E65510C6EBA510D6E0E6A0F6A106A04
:1052100023EC05F011500001F66F1250F76F135098
:10522000F86F1450F96F640E116E126A136A146AE3
:10523000F651096EF7510A6EF8510B6EF9510C6E6A
:105240003EEC05F015500001626F1650636F175069
:10525000646F1850656F98EC22F0010E0001C05D7C
:10526000D8A4A4EF29F0C2B93AEF29F001010499BA
:105270003CEF29F00101048904B942EF29F08A9E2C
:1052800043EF29F08A8E5E50096E5F500A6E6050BF
:105290000B6E61500C6E0001BB510D6E0E6A0F6AF1
:1052A000106A23EC05F011500001F66F1250F76FF1
:1052B0001350F86F1450F96F640E116E126A136A6E
:1052C000146AF651096EF7510A6EF8510B6EF951D6
:1052D0000C6E3EEC05F015505E6E16505F6E17506A
:1052E000606E1850616E00016251096E63510A6E62
:1052F00064510B6E65510C6EBB510D6E0E6A0F6AD8
:10530000106A23EC05F011500001F66F1250F76F90
:105310001350F86F1450F96F640E116E126A136A0D
:10532000146AF651096EF7510A6EF8510B6EF95175
:105330000C6E3EEC05F015500001626F1650636F65
:105340001750646F1850656F98EC22F0020E000140
:10535000C05DD8A41DEF2AF0C2BBB3EF29F0010154
:10536000049DB5EF29F00101048D04BDBBEF29F0C8
:105370008A9EBCEF29F08A8E5E50096E5F500A6EDD
:1053800060500B6E61500C6E0001BC510D6E0E6AC8
:105390000F6A106A23EC05F011500001F66F1250ED
:1053A000F76F1350F86F1450F96F640E116E126A94
:1053B000136A146AF651096EF7510A6EF8510B6EB2
:1053C000F9510C6E3EEC05F015505E6E16505F6E96
:1053D0001750606E1850616E00016251096E635182
:1053E0000A6E64510B6E65510C6EBC510D6E0E6AE7
:1053F0000F6A106A23EC05F011500001F66F12508D
:10540000F76F1350F86F1450F96F640E116E126A33
:10541000136A146AF651096EF7510A6EF8510B6E51
:10542000F9510C6E3EEC05F015500001626F1650FC
:10543000636F1750646F1850656F98EC22F0030E7D
:105440000001C05DD8A496EF2AF0C2BD2CEF2AF06F
:10545000010105912EEF2AF00101058105B134EF1C
:105460002AF08A9E35EF2AF08A8E5E50096E5F50D0
:105470000A6E60500B6E61500C6E0001BD510D6ED6
:105480000E6A0F6A106A23EC05F011500001F66FE6
:105490001250F76F1350F86F1450F96F640E116EBD
:1054A000126A136A146AF651096EF7510A6EF851BE
:1054B0000B6EF9510C6E3EEC05F015505E6E1650F9
:1054C0005F6E1750606E1850616E00016251096E78
:1054D00063510A6E64510B6E65510C6EBD510D6EB9
:1054E0000E6A0F6A106A23EC05F011500001F66F86
:1054F0001250F76F1350F86F1450F96F640E116E5D
:10550000126A136A146AF651096EF7510A6EF8515D
:105510000B6EF9510C6E3EEC05F015500001626FF8
:105520001650636F1750646F1850656F98EC22F037
:10553000040E0001C05DD8A40FEF2BF0C2BFA5EF91
:105540002AF001010595A7EF2AF00101058505B5AF
:10555000ADEF2AF08A9EAEEF2AF08A8E5E50096E79
:105560005F500A6E60500B6E61500C6E0001BE51B0
:105570000D6E0E6A0F6A106A23EC05F011500001DF
:10558000F66F1250F76F1350F86F1450F96F640EE6
:10559000116E126A136A146AF651096EF7510A6E97
:1055A000F8510B6EF9510C6E3EEC05F015505E6E25
:1055B00016505F6E1750606E1850616E0001625198
:1055C000096E63510A6E64510B6E65510C6EBE51CB
:1055D0000D6E0E6A0F6A106A23EC05F0115000017F
:1055E000F66F1250F76F1350F86F1450F96F640E86
:1055F000116E126A136A146AF651096EF7510A6E37
:10560000F8510B6EF9510C6E3EEC05F0155000018F
:10561000626F1650636F1750646F1850656F98EC87
:1056200022F0060E0001C05DD8A420EF2BF08A9E68
:105630005E6A5F6A606A616A626B636B646B656B0A
:1056400098EC22F00001B22B140EB25DD8A42EEF1C
:105650002BF0B26B5A6A5B6A5C6A5D6AB32B140EFC
:10566000B35DD8A439EF2BF0B36B666B676B686BD7
:10567000696B55505D5CD8A44AEF2BF054505C5CCC
:10568000D8A44AEF2BF053505B5CD8A44AEF2BF020
:1056900052505A5CD8B459EF2BF0D8B059EF2BF0D8
:1056A00052505A6E53505B6E54505C6E55505D6E46
:1056B000B26B6150695DD8A46AEF2BF06050685DF1
:1056C000D8A46AEF2BF05F50675DD8A46AEF2BF087
:1056D0005E50665DD8B479EF2BF0D8B079EF2BF03F
:1056E0005E50666F5F50676F6050686F6150696FA2
:1056F000B36B496A98EC22F0010E4E5C01010691F1
:10570000D8B40681030E4E5C0693D8B40683069582
:1057100006A106B30685040E4E5C0697D8B406872C
:10572000069906A506B7068906A965EF2CF00001C3
:105730006A51525C096E6B51535C09126C51545C96
:1057400009126D51555C0910D8B4E1EF2BF06A5184
:105750000101846F00016B510101856F41EC12F072
:105760000001B429F66FD880330EB555F76F330EAC
:105770000101AC6F0001F6510101AD6F0001F7515D
:105780000101AE6F010E05EC0EF00001B429F66FB9
:10579000D880330EB555F76FF651FA6FF751FB6F9E
:1057A000010EFC6FFB510101CA6F0001FC510101A8
:1057B000CB6F0001FC510101CC6F0001FA518EEC5E
:1057C0000BF098EC22F000016E51565C096E6F519F
:1057D000575C09127051585C09127151595C0910DB
:1057E000D8B431EF2CF06E510101846F00016F517C
:1057F0000101856F41EC12F0D8803E0E0001B455D6
:10580000F66FD880330EB555F76F330E0101AC6FCC
:105810000001F6510101AD6F0001F7510101AE6FBA
:105820003E0E05EC0EF0D8803E0E0001B455F66F2A
:10583000D880330EB555F76FF651FD6FF751FE6FF7
:10584000010EFF6FFE510101CA6F0001FF510101FE
:10585000CB6F0001FF510101CC6F0001FD518EECB7
:105860000BF098EC22F0000172515A5C096E7351F2
:105870005B5C091274515C5C091275515D5C091026
:10588000D8B465EF2CF072510101846F000173519F
:105890000101856F41EC12F00001B429F66FD88048
:1058A000330EB555F76FF65101010B6F0001F7513B
:1058B00001010C6F020E0D6F0C51CA6F0D51CB6FB1
:1058C0000D51CC6F0B518EEC0BF098EC22F0010EC9
:1058D0004E5C01010791D8B40781050E4E5C079319
:1058E000D8B40783079507A107B30785060E4E5C5A
:1058F0000797D8B40787079907A507B7078907A9A6
:1059000059EF2DF0000176515E5C096E77515F5CB6
:1059100009127851605C09127951615C0910D8B4A0
:10592000CFEF2CF076510101846F00017751010116
:10593000856F41EC12F00001B429F66F400EF62598
:10594000F76FD880330EB555F86F330E0101AC6F89
:105950000001F7510101AD6F0001F8510101AE6F77
:10596000410E05EC0EF00001B429F66F400EF6254D
:10597000F76FD880330EB555F86FF75101010E6FF0
:105980000001F85101010F6F010E106F0F51CA6F26
:105990001051CB6F1051CC6F0E518EEC0BF098EC78
:1059A00022F000017A51625D096E7B51635D09123C
:1059B0007C51645D09127D51655D0910D8B422EFF8
:1059C0002DF07A510101846F00017B510101856F37
:1059D00041EC12F0D8803E0E0001B455F66F400E37
:1059E000F625F76FD880330EB555F86F330E0101E9
:1059F000AC6F0001F7510101AD6F0001F8510101D9
:105A0000AE6F7E0E05EC0EF0D8803E0E0001B45550
:105A1000F66F400EF625F76FD880330EB555F86F48
:105A2000F7510101116F0001F8510101126F010ED0
:105A3000136F1251CA6F1351CB6F1351CC6F1151A9
:105A40008EEC0BF098EC22F000017E51665D096E41
:105A50007F51675D09128051685D09128151695D4E
:105A60000910D8B459EF2DF07E510101846F000167
:105A70007F510101856F41EC12F00001B429F66FEE
:105A8000400EF625F76FD880330EB555F86FF751F5
:105A90000101146F0001F8510101156F020E166F1C
:105AA0001551CA6F1651CB6F1651CC6F14518EEC35
:105AB0000BF098EC22F0010E496E010E4E5C0101D4
:105AC0000891D8B40881030E4E5C0893D8B40883BB
:105AD000089508A108B30885040E4E5C0897D8B451
