:020000040000FA
:040000002BEF0AF0E8
:0800080000010950196EFCEF24
:1000100023F00003080C11151A1E23272B30343946
:100020003D41464A4E52575B5F63676B6F73777B08
:100030007F83878A8E9295999DA0A4A7AAAEB1B41A
:10004000B7BABDC0C3C6C9CBCED1D3D6D8DADDDFEF
:10005000E1E3E5E7E9EBECEEF0F1F2F4F5F6F7F8C1
:10006000F9FAFBFCFDFDFEFEFEFFFFFFFF0053570C
:1000700052204D65746572202A2042792050413209
:1000800052444B00202050493352415A2E4E4C00CE
:1000900020436F707972696768742050413252440E
:1000A0004B2028632900202056657273696F6E20EB
:1000B000332E352048534D6574657220696E207269
:1000C000657665727365206D6F6465004D65746556
:1000D0007220696E206E6F726D616C206D6F646549
:1000E000524546203D00535752203D005357585823
:1000F0003D005045414B3D00572030572000313ADC
:1001000020002E002A00524546004849474820005A
:10011000313D323D5357523120506F776572200088
:100120005357523220506F77657220004D756C74B2
:1001300069706C69657220003520566F6C742020E0
:10014000202020004F6E20004F66660048462000A9
:10015000344D200056484600554846005348460056
:100160004E2F4300000000000101010102020203C2
:100170000304050506060708090A0B0C0D0E0F10EF
:10018000111213141617191A1B1D1E2022232527BE
:10019000292A2C2E30323436383A3D3F41434648E6
:1001A0004A4D4F5255575A5C5F6265686B6E717469
:1001B000777A7D8083868A8D9194979B9EA2A6A94B
:1001C000ADB1B5B8BCC0C4C8CCD0D4D80000000014
:1001D0000000002F00000007000700147F147F14A8
:1001E000242A7F2A12C4C8102646364955225000B8
:1001F00005030000001C2241000041221C001408DD
:100200003E081408083E0808000050300010101086
:100210001010006060000020100804023E514945A3
:100220003E00427F400042615149462141454B31E9
:100230001814127F1027454545393C4A4949300179
:10024000710905033649494936064949291E0036D0
:100250003600000056360000081422410014141421
:10026000141400412214080201510906324959515F
:100270003E7E1111117E7F494949363E414141225E
:100280007F4141221C7F494949417F090909013EBB
:100290004149497A7F0808087F00417F410020409A
:1002A000413F017F081422417F404040407F020CC3
:1002B000027F7F0408107F3E4141413E7F090909CA
:1002C000063E4151215E7F09192946464949493177
:1002D00001017F01013F4040403F1F2040201F3F60
:1002E0004038403F631408146307087008076151E1
:1002F000494543007F414100552A552A5500414157
:100300007F0004020102044040404040000102041A
:100310000020545454787F4844443838444444209E
:10032000384444487F3854545418087E0901020C5C
:100330005252523E7F0804047800447D4000204021
:10034000443D007F1028440000417F40007C041899
:1003500004787C0804047838444444387C14141429
:1003600008081414187C7C080404084854545420C9
:10037000043F4440203C4040207C1C2040201C3C4A
:100380004030403C44281028440C5050503C4464B9
:10039000544C440000000000000000000000000079
:1003A0001818181818181818180018186C6C00006D
:1003B000000000000000000066FFFF6666666666DB
:1003C00066FFFF667EFFDBD8D8FE7F1B1BDBFF7E50
:1003D000000000000000000000000000E3A3E606AB
:1003E0000C0C30306067C5C7181800000000000012
:1003F000000000000C1C18183030303018181C0C8D
:10040000181C0C0C060606060C0C1C18E0A0E000DC
:1004100000000000000000000000181818FFFF187E
:10042000181800000000000000000000001838301C
:100430000000000000FFFF000000000000000000BE
:100440000000000000001818030306060C0C3030F2
:100450006060C0C07EFFC3C3C3C3C3C3C3C3FF7E4A
:1004600018381818181818181818FFFF7EFFC30737
:100470000E1C3870E0C0FFFF7EFFC303037E7E03C7
:1004800003C3FF7EC3C3C3C3C3FF7F0303030303CD
:10049000FFFFC0C0C0FEFE0303C3FF7E7EFFC3C0DC
:1004A000C0FEFFC3C3C3FF7EFFFF0303060E1C385D
:1004B0007060C0C07EFFC3C3C37E7EC3C3C3FF7E64
:1004C0007EFFC3C3C3FF7F0303C3FF7E1818000072
:1004D00000000000000018181818000000000000BC
:1004E00000183830060C183060C0C06030180C0698
:1004F000000000FFFF00FFFF00000000C060301898
:100500000C06060C183060C07EFFC30303030E1CEC
:10051000180018187EFFC3C3DBDFDEC0C0C3FF7E38
:100520007EFFC3C3C3FFFFC3C3C3C3C3FEFFC3C3B5
:10053000C3FEFEC3C3C3FFFE7EFFC3C0C0C0C0C0B6
:10054000C0C3FF7EFEFFC3C3C3C3C3C3C3C3FFFE99
:10055000FFFFC0C0C0FEFEC0C0C0FFFFFFFFC0C0A5
:10056000C0FEFEC0C0C0C0C07EFFC3C0C0C0C7C701
:10057000C3C3FF7EC3C3C3C3C3FFFFC3C3C3C3C3DC
:10058000FFFF1818181818181818FFFF03030303A3
:100590000303030303C3FF7EC3C3C6CCD8F0F0D864
:1005A000CCC6C3C3C0C0C0C0C0C0C0C0C0C0FFFFB5
:1005B000C3E7FFDBDBC3C3C3C3C3C3C3C3E3E3F30B
:1005C000D3DBCBCFC7C7C3C37EFFC3C3C3C3C3C3C0
:1005D000C3C3FF7EFEFFC3C3C3FFFEC0C0C0C0C015
:1005E0007EFFC3C3C3C3C3C3DBDBFF7EFEFFC3C346
:1005F000C3FFFECCCEC6C3C37EFFC3C0C0FE7F0315
:1006000003C3FF7EFFFF18181818181818181818B9
:10061000C3C3C3C3C3C3C3C3C3C3FF7EC3C3C3C3B3
:10062000C3C3C366663C3C18C3C3C3C3C3C3C3C30D
:10063000DBDBFF66C3E7663C3C18183C3C66E7C35F
:10064000C3C3C3C3C3FF7F0303C3FF7EFFFF03070F
:100650000E1C3870E0C0FFFF1C1C18181818181862
:1006600018181C1CC0C0F0303818180C0C0F0303ED
:10067000383818181818181818183838183C66C35D
:10068000000000000000000000000000000000006A
:100690000000FFFF18180400000000000000000028
:1006A0007EFFC3C3C3FFFFC3C3C3C3C3FEFFC3C334
:1006B000C3FEFEC3C3C3FFFE7EFFC3C0C0C0C0C035
:1006C000C0C3FF7EFEFFC3C3C3C3C3C3C3C3FFFE18
:1006D000FFFFC0C0C0FEFEC0C0C0FFFFFFFFC0C024
:1006E000C0FEFEC0C0C0C0C07EFFC3C0C0C0C7C780
:1006F000C3C3FF7EC3C3C3C3C3FFFFC3C3C3C3C35B
:10070000FFFF1818181818181818FFFF0303030321
:100710000303030303C3FF7EC3C3C6CCD8F0F0D8E2
:10072000CCC6C3C3C0C0C0C0C0C0C0C0C0C0FFFF33
:10073000C3E7FFDBDBC3C3C3C3C3C3C3C3E3E3F389
:10074000D3DBCBCFC7C7C3C37EFFC3C3C3C3C3C33E
:10075000C3C3FF7EFEFFC3C3C3FFFEC0C0C0C0C093
:100760007EFFC3C3C3C3C3C3DBDBFF7EFEFFC3C3C4
:10077000C3FFFECCCEC6C3C37EFFC3C0C0FE7F0393
:1007800003C3FF7EFFFF1818181818181818181838
:10079000C3C3C3C3C3C3C3C3C3C3FF7EC3C3C3C332
:1007A000C3C3C366663C3C18C3C3C3C3C3C3C3C38C
:1007B000DBDBFF66C3E7663C3C18183C3C66E7C3DE
:1007C000C3C3C3C3C3FF7F0303C3FF7EFFFF03078E
:1007D0000E1C3870E0C0FFFF1C1C181818383818A1
:1007E00018181C1C18181818181818181818181881
:1007F00038381818181C1C18181838380000000051
:10080000DEFF7B00000000007E7E66666666666630
:1008100066667E7E0000000000000000002F0000E1
:1008200000000700070000147F147F1400242A7FB3
:100830002A12006264081323003649552250000032
:100840000503000000001C224100000041221C00A2
:100850000014083E08140008083E0808000000A024
:100860006000000808080808000060600000002020
:1008700010080402003E5149453E0000427F4000FE
:10088000004261514946002141454B310018141284
:100890007F10002745454539003C4A494930000151
:1008A0007109050300364949493600064949291EA0
:1008B0000000363600000000563600000008142202
:1008C0004100001414141414000041221408000202
:1008D0000151090600324959513E007C1211127C27
:1008E000007F49494936003E41414122007F414154
:1008F000221C007F49494941007F09090901003E46
:100900004149497A007F0808087F0000417F410083
:10091000002040413F01007F08142241007F4040F9
:100920004040007F020C027F007F0408107F003EE1
:100930004141413E007F09090906003E4151215EC7
:10094000007F091929460046494949310001017FC4
:100950000101003F4040403F001F2040201F003F5A
:100960004038403F0063140814630007087008070C
:1009700000615149454300007F41410000552A551F
:100980002A55000041417F0000040201020400409A
:1009900040404040000001020400002054545478BC
:1009A000007F4844443800384444442000384444DC
:1009B000487F00385454541800087E09010200187A
:1009C000A4A4A47C007F080404780000447D4000B7
:1009D000004080847D00007F102844000000417F9B
:1009E0004000007C04180478007C08040478003877
:1009F0004444443800FC242424180018242418FCFF
:100A0000007C0804040800485454542000043F4467
:100A10004020003C4040207C001C2040201C003C2A
:100A20004030403C004428102844001CA0A0A07C7A
:100A3000004464544C440000060909060700000005
:100A400000000000000000000000000000000000A6
:100A50000000000000060000000000000000FF6F22
:100A6000FF6F000000000000000000000000070011
:100A70000000000F000F0000000F000F000000003A
:100A8000000000000000000BA000A000A000A000DB
:100A9000FF7FA000FF7FA000A000A000A00000003A
:100AA0000A000000007E20432041204120412041D7
:100AB00020C230821F000000000100000000000082
:100AC0000000000000000000000000000000000026
:100AD0000000010000000000000000000000000015
:100AE0000000000000000000000000010000000005
:100AF00000000000000000000000000000000000F6
:100B000000000000010000000000000000000000E4
:100B100000000000000000000000000000010000D4
:100B200000000000000000000000000000000000C5
:100B300000000000000001000000000000000000B4
:100B400000000000000000000000000000000001A4
:100B50000000000000000000000000000000000095
:100B60000000000000000000010000000000000084
:100B70000000000000000000000000000000000075
:100B80000001000000000000000000000000000064
:100B90000000000000000000000001000000000054
:100BA0000000000000000000000000000000000045
:100BB0000000000100000000000000000000000034
:100BC0000000000000000000000000000100000024
:100BD0000000000000000000000000000000000015
:100BE0000000000000010000000000000000000004
:100BF00000000000000000000000000000000100F4
:100C000000000000000000000000000000000000E4
:100C100000000000000000010000000000000000D3
:100C200000000000000000000000000000000000C4
:100C300001000000000000000000000000000000B3
:100C400000000000000000000001000000000000A3
:100C50000000000000000000000000000000000094
:100C60000000010000000000000000000000000083
:100C70000000000000000000000000010000000073
:100C80000000000000000000000000000000000064
:100C90000000000001000000000000000000000053
:100CA0000000000000000000000000000001000043
:100CB0000000000000000000000000000000000034
:100CC0000000000000000100000000000000000023
:100CD0000000000000000000000000000000000113
:100CE0000000000000000000000000000000000004
:100CF00000000000000000000100000000000000F3
:100D000000000000000000000000000000000000E3
:100D100000010000000000000000000000000000D2
:100D200000000000000000000000010000000000C2
:100D300000000000000000000000000000000000B3
:100D400000000001000000000000000000000000A2
:100D50000000000000000000000000000100000092
:100D60000000000000000000000000000000000083
:100D70000000000000010000000000000000000072
:100D80000000000000000000000000000000010062
:100D90000000000000000000000000000000000053
:100DA0000000000000000001000000000000000042
:100DB0000000000000000000000000000000000033
:100DC0000100000000000000000000000000000022
:100DD0000000000000000000000100000000000012
:100DE0000000000000000000000000000000000003
:100DF00000000100000000000000000000000000F2
:100E000000000000000000000000000100000000E1
:100E100000000000000000000000000000000000D2
:100E200000000000010000000000000000000000C1
:100E300000000000000000000000000000010000B1
:100E400000000000000000000000000000000000A2
:100E50000000000000000100000000000000000091
:100E60000000000000000000000000000000000181
:100E70000000000000000000000000000000000072
:100E80000000000000000000010000000000000061
:100E90000000000000000000000000000000000052
:100EA0000001000000000000000000000000000041
:100EB0000000000000000000000001000000000031
:100EC0000000000000000000000000000000000022
:100ED0000000000100000000000000000000000011
:100EE0000000000000000000000000000100000001
:100EF00000000000000000000000000000000000F2
:100F000000000000000100000000000000000000E0
:100F100000000000000000000000000000000100D0
:100F200000000000000000000000000000000000C1
:100F300000000000000000010000000000000000B0
:100F400000000000000000000000000000000000A1
:100F50000100000000000000000000000000000090
:100F60000000000000000000000100000000000080
:100F70000000000000000000000000000000000071
:100F80000000010000000000000000000000000060
:100F900000000000000000000000000BFF3FFF7F8A
:100FA00000600060F87FF81FF87F00600060FF7F3E
:100FB000FF3F0000010000000000000000000000F2
:100FC0000000000000000000000000000001000020
:100FD0000000000000000000000000000000000011
:100FE0000000000000000100000000000000000000
:100FF00000000000000000000000000000000001F0
:1010000000000000000000000000000000000000E0
:1010100000000000000000000100000000000000CF
:1010200000000000000000000000000000000000C0
:1010300000010000000000000000000000000000AF
:10104000000000000000000000000100000000009F
:101050000000000000000000000000000000000090
:10106000000000010000000000000000000000007F
:10107000000000000000000000000000010000006F
:101080000000000000000000000000000000000060
:10109000000000000001000000000000000000004F
:1010A000000000000000000000000000000001003F
:1010B0000000000000000000000000000000000030
:1010C000000000000000000100000000000000001F
:1010D0000000000000000000000000000000000010
:1010E00001000000000000000000000000000000FF
:1010F00000000000000000000001000000000000EF
:1011000000000000000000000000000000000000DF
:1011100000000100000000000000000000000000CE
:1011200000000000000000000000000100000000BE
:1011300000000000000000000000000000000000AF
:10114000000000000100000000000000000000009E
:10115000000000000000000000000000000100008E
:10116000000000000000000000000000000000007F
:10117000000000000000010000000000000000006E
:10118000000000000000000000000000000000015E
:10119000000000000000000000000000000000004F
:1011A000000000000000000001000000000000003E
:1011B000000000000000000000000000000000002F
:1011C000000100000000000000000000000000001E
:1011D000000000000000000000000100000000000E
:1011E00000000000000000000000000000000000FF
:1011F00000000001000000000000000000000000EE
:1012000000000000000000000000000001000000DD
:1012100000000000000000000000000000000000CE
:1012200000000000000100000000000000000000BD
:1012300000000000000000000000000000000100AD
:10124000000000000000000000000000000000009E
:10125000000000000000000100000000000000008D
:10126000000000000000000000000000000000007E
:10127000010000000000000000000000000000006D
:10128000000000000000000000010000000000005D
:10129000000000000000000000000000000000004E
:1012A000000001000000000000000000000000003D
:1012B000000000000000000000000001000000002D
:1012C000000000000000000000000000000000001E
:1012D000000000000100000000000000000000000D
:1012E00000000000000000000000000000010000FD
:1012F00000000000000000000000000000000000EE
:1013000000000000000001000000000000000000DC
:1013100000000000000000000000000000000001CC
:1013200000000000000000000000000000000000BD
:1013300000000000000000000100000000000000AC
:10134000000000000000000000000000000000009D
:10135000000100000000000000000000000000008C
:10136000000000000000000000000100000000007C
:10137000000000000000000000000000000000006D
:10138000000000010000000000000000000000005C
:10139000000000000000000000000000200E1C6E95
:1013A000D8901136123613361436D89009360A36CC
:1013B0000B360C36D8A0E5EF09F00D5011260E5073
:1013C00012220F501322105014221C2ED0EF09F0BD
:1013D0001200200E1C6E0D6A0E6A0F6A106AD890F9
:1013E0001536163617361836D89009360A360B36A3
:1013F0000C360D360E360F3610361050145CD8A44D
:101400000EEF0AF00F50135CD8A40EEF0AF00E5046
:10141000125CD8A40EEF0AF00D50115CD8B414EF92
:101420000AF0D8B022EF0AF0D8800D5011540D6E9A
:101430000E5012540E6E0F5013540F6E1050145461
:10144000106E15801C2EEFEF09F01200FB6E1F507E
:10145000FA6E1E50F96E5FEF0AF048514B6F49511A
:101460004C6FA6B231EF0AF04B51A96EA69CA69E16
:10147000A680A8504A6F4A5112000201446F42519F
:10148000466F4351476FA6B243EF0AF04651A96E2B
:10149000A69CA69E4451A86EA6844591F2BE4581A5
:1014A000F29E550EA76EAA0EA76EA68245B15CEFFE
:1014B0000AF0F29E5DEF0AF0F28EA694120093827B
:1014C00093849386949C949E9388938A9380939E0E
:1014D0009288928A928C939C476A486A496A4A6ABF
:1014E0004B6A4C6A4D6A4E6A4F6A506A516A526A38
:1014F000536A546A556A566A576A586A596A5A6AE8
:101500005B6A5C6A5D6A5E6A5F6A606A616A626A97
:10151000636B646B656B666B676B686B696B6A6B3F
:101520006B6B6C6B6D6B6E6B6F6B706B716B726BEF
:10153000736B746B756B766B776B786B796B7A6B9F
:101540007B6B7C6B7D6B7E6B7F6B806B816B826B4F
:10155000836B846B856B866B876B886B896B8A6BFF
:101560008B6B8C6B8D6B8E6B8F6B906B916B926BAF
:10157000936B946B956B966B640E976F640E986F7C
:10158000640E996F640E9A6F640E9B6FBE91BE934A
:10159000BE95BE97BE999C6B9D6B9E6B9F6BA06B1F
:1015A000A16BA26BA36BA46BA56B8B8E8B9CA66BA4
:1015B000A76B010EA86F010EA96F010EAA6FBE9B4B
:1015C000BE9DAB6BAC6BBE9FAD6BAE6B9AEF0EF07E
:1015D00002011E6B1F6B1E51486F1F51496F2DEC8E
:1015E0000AF00201206F20511D6FFF0E1D5DD8B45F
:1015F000D6EF0BF0216B226B2151486F2251496FBE
:101600002DEC0AF00201236F23511D6F1D510001C3
:10161000976F010E0201246F256B2451486F2551ED
:10162000496F2DEC0AF00201266F26511D6F1D51E6
:101630000001986F020E0201276F286B2751486F37
:101640002851496F2DEC0AF00201296F29511D6FB5
:101650001D510001996F030E02012A6F2B6B2A5155
:10166000486F2B51496F2DEC0AF002012C6F2C5161
:101670001D6F1D5100019A6F040E02012D6F2E6B1C
:101680002D51486F2E51496F2DEC0AF002012F6F3A
:101690002F511D6F1D5100019B6F050E0201306F10
:1016A000316B3051486F3151496F2DEC0AF0020116
:1016B000326F32511D6F1D51D8B463EF0BF0000132
:1016C000BE8165EF0BF00001BE91060E0201336F83
:1016D000346B3351486F3451496F2DEC0AF00201DD
:1016E000356F35511D6F1D51D8B47BEF0BF00001E4
:1016F000BE837DEF0BF00001BE93070E0201366F33
:10170000376B3651486F3751496F2DEC0AF00201A3
:10171000386F38511D6F1D51D8B493EF0BF0000195
:10172000BE8595EF0BF00001BE95080E0201396FE2
:101730003A6B3951486F3A51496F2DEC0AF002016A
:101740003B6F3B511D6F1D51D8B4ABEF0BF0000147
:10175000BE87ADEF0BF00001BE97090E02013C6F92
:101760003D6B3C51486F3D51496F2DEC0AF0020131
:101770003E6F3E511D6F1D51D8B4C3EF0BF00001F9
:10178000BE89C5EF0BF00001BE990A0E02013F6F42
:10179000406B3F51486F4051496F2DEC0AF00201F8
:1017A000416F41511D6F1D510001A86F12000201D0
:1017B000426B436B000197513DEC0AF0010E0201B0
:1017C000426F436B000198513DEC0AF0020E02019A
:1017D000426F436B000199513DEC0AF0030E020188
:1017E000426F436B00019A513DEC0AF0040E020176
:1017F000426F436B00019B513DEC0AF0050E020164
:10180000426F436B0001BE51010B3DEC0AF0060E26
:101810000201426F436B000E0001BEB3010E3DECAE
:101820000AF0070E0201426F436B000E0001BEB5C5
:10183000010E3DEC0AF0080E0201426F436B000EF0
:101840000001BEB7010E3DEC0AF0090E0201426F25
:10185000436B000E0001BEB9010E3DEC0AF00A0E0A
:101860000201426F436B0001A8513DEF0AF00201F3
:10187000149181AA1481149381A81483148514B13E
:1018800014A31495149781A01487148914B514A770
:10189000149914A94EEF0CF000019C6B0201149BEB
:1018A00081AA148B149D81B8148D148F14BB14ADB0
:1018B000149F14AF5FEF0CF0010E00019C6F02014A
:1018C000159181BA1581159381A81583158515B1D8
:1018D00015A315950001AD5102011587D8A41597E0
:1018E000158915B515A7159915A97AEF0CF0020EF3
:1018F00000019C6F0201159B81BA158B159D81A873
:10190000158D158F15BB15AD159F010E0001AD5D31
:1019100002011691D8B41681168315BF16A116932D
:1019200016A396EF0CF0030E00019C6F02011695B2
:1019300081BA1685169781B81687168916B516A727
:101940001699169B81A0168B168D16B916AB169D8F
:1019500016ADAEEF0CF0030E00019C6F0201169F56
:1019600081AA168F179181A81781178316BF17A117
:101970001793179581B01785178717B317A5179772
:1019800017A7C6EF0CF0040E00019C6F0201179917
:1019900081BA1789179B81B8178B178D17B917ABA9
:1019A000179D179F81B0178F188117BD17AF18911A
:1019B00018A1DEEF0CF0050E00019C6F02011893D8
:1019C00080A81883189580AA1885188718B318A5B9
:1019D0001897189980AC1889188B18B718A9189BF4
:1019E00018ABF5EF0CF000019D6B0201189D80A86B
:1019F000188D189F80BA188F198118BD18AF1991CA
:101A000019A106EF0DF0010E00019D6F020119935F
:101A100080B81983199580AA1985198719B319A552
:101A200019970001AD5102011989D8A41999198B90
:101A300019B719A9199B19AB21EF0DF0020E00017E
:101A40009D6F0201199D80B8198D199F80AA198F69
:101A50001A8119BD19AF1A91010E0001AD5D020185
:101A60001A93D8B41A831A851AB11AA31A951AA50B
:101A70003DEF0DF0030E00019D6F02011A9780B833
:101A80001A871A9980BA1A891A8B1AB71AA91A9B37
:101A90001A9D80AC1A8D1A8F1ABB1AAD1A9F1AAFF5
:101AA00055EF0DF0030E00019D6F02011B9180A800
:101AB0001B811B9380AA1B831B851BB11BA31B953A
:101AC0001B9780BC1B871B891BB51BA71B991BA9D8
:101AD0006DEF0DF0040E00019D6F02011B9B80B89D
:101AE0001B8B1B9D80BA1B8D1B8F1BBB1BAD1B9FB4
:101AF0001C9180BC1C811C831BBF1CA11C931CA3BC
:101B000085EF0DF0050E00019D6F12000B510D5D6C
:101B1000D8A48DEF0DF00A510C5DD8B4C5EF0DF0CF
:101B2000D8B0C5EF0DF00A510C250E6F0B510D21E9
:101B30000F6F0E51096E0F510A6E0B6A0C6A0A0E76
:101B40000D6E0E6A0F6A106ACEEC09F01150020198
:101B5000106F1250116FD8800A510C55126F0B5133
:101B60000D55136F1251116E1351126E136A146AD0
:101B70001051096E11510A6E0B6A0C6AE9EC09F0FA
:101B800015500001936FC8EF0DF0FF0E0001936F29
:101B900002010A510B11D8A4D1EF0DF00A0E000179
:101BA000936F1E0E0001935DD8B4DBEF0DF0D8A04B
:101BB000DBEF0DF0BE8F0A0E116E126A136A146A03
:101BC0009351096E0A6A0B6A0C6AE9EC09F0155028
:101BD0000001956F0A0E116E126A136A146A93510E
:101BE000096E0A6A0B6A0C6AE9EC09F015500201E9
:101BF0000E6F0E51096E0A6A0B6A0C6A0A0E0D6EA0
:101C00000E6A0F6A106ACEEC09F0115002010F6FD4
:101C1000D8800001935102010F550001946F12000A
:101C2000030E015DD8A417EF0EF0DE0E005DD8B4F0
:101C300021EF0EF0D8A021EF0EF0DE0E006F030EA4
:101C4000016FD880DE0E0055026F030E0155036F41
:101C50000B0E116E126A136A146A0251096E035157
:101C60000A6E0B6A0C6AE9EC09F015500201046F68
:101C70001650056F120EF66E000EF76E000EF86E1F
:101C80000451F6260551F722000E006E0050F8228E
:101C90000900F550066F076B086B096B050E116E96
:101CA000126A136A146A0651096E07510A6E0851C6
:101CB0000B6E09510C6EE9EC09F015500001916FA3
:101CC0000B0E116E126A136A146A02010051096E3A
:101CD00001510A6E0B6A0C6AE9EC09F01550020119
:101CE000026F1650036F120EF66E000EF76E000EA6
:101CF000F86E0251F6260351F722000E006E0050D6
:101D0000F8220900F550046F056B066B076B050E92
:101D1000116E126A136A146A0451096E05510A6E33
:101D200006510B6E07510C6EE9EC09F015500001DD
:101D3000926F12008F0ED3147009D36E6D966F865A
:101D4000080E6F6EC26A0F0EC16EC06A070EB46EC7
:101D500041EF10F00101FD6FFD51D8B41200010EEA
:101D6000FD5DD8A4BBEF0EF00001230E096E092E15
:101D7000B7EF0EF01200FD0700011F0E096E092ECD
:101D8000BFEF0EF00101FD51FE6FFF6BD0EF0EF0C3
:101D90000001270E096E092ECBEF0EF00101FF2B7B
:101DA000FF51FE5DD8A4C8EF0EF01200F751F96F95
:101DB000F851FA6FFB6BFC6BEDEF0EF00001FF0EBC
:101DC000096E0E0E0A6E0A2EE3EF0EF0092EE1EFF9
:101DD0000EF00101FB2BD8B4FC2BFB51F95D096E11
:101DE000FC51FA5D0910D8A4DEEF0EF01200F1519B
:101DF000F36FF251F46FF56BF66B14EF0FF0000117
:101E00004A0E096E2B0E0A6E7C0E0B6E0B2E06EF21
:101E10000FF00A2E04EF0FF0092E02EF0FF0000072
:101E20000101F52BD8B4F62BF551F35D096EF6518F
:101E3000F45D0910D8A4FFEF0EF01200E751EC6F2B
:101E4000E851ED6FEC51EF6FED51F06FEE6B41EF3C
:101E50000FF0E951EE25F66E000E006EEA510020FB
:101E6000F76EEB510020F86EF89C0900F550096EF2
:101E7000E4511E6EE5511F6EE65126EC0AF0010199
:101E8000EE2BEE51EF5D096EF0510910D8A429EF49
:101E90000FF01200D8900001AF37B037B137B2372A
:101EA000D890AF350101E06F0001B0350101E16F5D
:101EB0000001B1350101E26F0001B2350101E36FAC
:101EC000D890E037E137E237E337E0510001AF2740
:101ED0000101E1510001B0230101E2510001B123F0
:101EE0000101E3510001B2231200010E0001AF6FA6
:101EF000B06BB16BB26B0101D86BD96B0001B25101
:101F00000101D75DD8A497EF0FF00001B151010195
:101F1000D65DD8A497EF0FF00001B0510101D55D57
:101F2000D8A497EF0FF00001AF510101D45DDB9110
:101F3000D8A4D8B0DB81000ED95DD8A4A2EF0FF0F1
:101F40000A0ED85DDB93D8B4A8EF0FF0D8A0DB83DE
:101F5000DB85DBB1DBA3DB95DBA5B7EF0FF04AEC4C
:101F60000FF00101D82BD8B4D92B7EEF0FF0D85148
:101F7000D911D8A4BFEF0FF0010ED86FD96BD807D5
:101F8000D829D8B4D907010E0001AF6FB06BB16B7F
:101F9000B26B0101D851DC6FD951DD6FDE6BDF6BA5
:101FA000D8EF0FF04AEC0FF00101DE2BD8B4DF2B95
:101FB000DE51DC5D096EDF51DD5D0910D8A4D2EF82
:101FC0000FF0300EDA6FD7510001B25DD8A4FBEFED
:101FD0000FF00101D6510001B15DD8A4FBEF0FF065
:101FE0000101D5510001B05DD8A4FBEF0FF0010154
:101FF000D4510001AF5DD8B401EF10F0D8B01AEFA2
:1020000010F0D8800101D4510001AF550101D46F07
:10201000D5510001B0550101D56FD6510001B15520
:102020000101D66FD7510001B2550101D76FDA2BEC
:10203000E3EF0FF00101DA51096ED1511E6ED2515A
:102040001F6ED35126EC0AF00101D851D911D8A442
:10205000BFEF0FF01200CB51CD6FCC51CE6FCF6BD5
:10206000D06BC851D16FC951D26FCA51D36FCD5106
:10207000D46FCE51D56FCF51D66FD051D76F75EF8A
:102080000FF0B36B010EB46FD4EF11F0416E8D9071
:102090000001030E096E092E4BEF10F042B054EF11
:1020A00010F08B8255EF10F08B808D940001030EA1
:1020B000096E092E59EF10F041508C6E956A8D8093
:1020C0000001070E096E092E63EF10F08D900001DC
:1020D000030E096E092E6AEF10F08B928B9012009E
:1020E0008D900001030E096E092E74EF10F044B0BC
:1020F0007DEF10F08B827EEF10F08B808D840001DD
:10210000030E096E092E82EF10F08D800001070E7C
:10211000096E092E89EF10F08D900001030E096EF3
:10212000092E90EF10F0FF0E956E8350436E8B9248
:102130008B904350120042903F0E46EC10F04280CC
:102140003F0E46EF10F0366E3E90400E365CD8B42F
:10215000ADEF10F0D8A0B0EF10F0C00E36263E80E4
:102160008D923F0E36143F6E400E3F10406E4290EF
:102170003EB04280405046EC10F0D89037303C6E74
:10218000D8903C32D8903C32070E3C143F6EB80ECB
:102190003F10406E42903EB04280405046EC10F0FE
:1021A0008D8244903EB0448070EC10F0386E4490C4
:1021B0003EB0448070EC10F0386E010E0001B45D4A
:1021C000D8A4F7EF10F0070E3714396E3950006EAF
:1021D000010E3A6E0050F0EF10F0D8903A3600063B
:1021E000D8A4EDEF10F03A5038120BEF11F0070EB3
:1021F0003714396E3950006E010E3A6E005004EFFC
:1022000011F0D8903A360006D8A401EF11F03A1C2C
:102210003B6E3B5038168D923F0E36143F6E400E8B
:102220003F10406E42903EB04280405046EC10F06D
:10223000D89037303D6ED8903D32D8903D32070E61
:102240003D143F6EB80E3F10406E42903EB042804B
:10225000405046EC10F08D8242903EB042803850A3
:1022600046EF10F00101BB6FBC6B8D92070EBC15E1
:10227000BE6FB80EBE11BF6F4290BF5146EC10F05A
:10228000070E0101BC15C06FB80EC011C16F4280AE
:10229000C15146EC10F00101C26B3F0EC215C36F75
:1022A000400EC311C46F4290C45146EC10F00101BE
:1022B000C56B3F0EC515C66F400EC611C76F428075
:1022C000C75146EC10F08D820101BD6B4290BB51AD
:1022D00046EC10F042800101BB5146EC10F00101C8
:1022E000BD2B800EBD5DD8A466EF11F0BC2B080E8F
:1022F000BC5DD8A435EF11F012008B940001070EDD
:10230000096E092E81EF11F08B84B351D8A48EEFA2
:1023100011F0000E32EC11F091EF11F0FF0E32ECE3
:1023200011F08D920101AF6B070EAF15B06FB80EB3
:10233000B011B16F4290B15146EC10F00101B26B97
:10234000070EB215B36FB80EB311B46F4280B4511B
:1023500046EC10F00101B56B3F0EB515B66F400E9F
:10236000B611B76F4290B75146EC10F00101B86B4F
:102370003F0EB815B96F400EB911BA6F4280BA510D
:1023800046EC10F09BEF10F08C6A956A8D828D946C
:102390008D808B928B908B8496949692969094904D
:1023A000949294947DEF11F0B56BB66B1DEF18F01D
:1023B0000101AE6F010EAE5DD8A4EAEF11F0010E7F
:1023C0000001B76F050EB86F050EB96F070EBA6F33
:1023D000070EBB6F020E0101AE5DD8A4FBEF11F03A
:1023E000020E0001B76F060EB86F060EB96F080E29
:1023F000BA6F070EBB6F030E0101AE5DD8A40CEFE0
:1024000012F0030E0001B76F0C0EB86F0A0EB96F11
:102410000C0EBA6F020EBB6F080E0101AE5DD8A4A0
:102420001DEF12F0080E0001B76F100EB86F0C0E02
:10243000B96F100EBA6F070EBB6F0101AE51FF0EE0
:10244000AE5D1200010E0001B75DD8A439EF12F0A5
:10245000CC0EF66E010EF76E000EF86E4550F626A5
:102460004650F722000E006E0050F8220900F55089
:102470001200020EB75DD8A44FEF12F0140EF66EE4
:10248000080EF76E000EF86E4550F6264650F722FD
:10249000000E006E0050F8220900F5501200030EE5
:1024A000B75DD8A465EF12F0940EF66E030EF76ECA
:1024B000000EF86E4550F6264650F722000E006ECC
:1024C0000050F8220900F5501200080EB75DD8A49C
:1024D0007BEF12F03C0EF66E0A0EF76E000EF86EF1
:1024E0004550F6264650F722000E006E0050F822A6
:1024F0000900F5501200000C246EB451276E020E34
:10250000BB5DD8A4EAEF12F0BA51326E306A316A7C
:10251000E0EF12F0E00E2624286E296A2850096E9A
:1025200029500A6E0B6A0C6A0001B8510D6E0E6AD2
:102530000F6A106ACEEC09F011502A6E12502B6E01
:102540002A5030242C6E2B5031202D6E2C50456E8D
:102550002D50466E22EC12F0336E800E346E000168
:10256000B951356E2E6A2F6AD5EF12F034503314FC
:10257000286E2850D8B4C2EF12F027500001B46F73
:10258000C5EF12F00001B351B46F24502E24286E11
:1025900025503024296E2950376E2850A3EC10F0B6
:1025A000D89034322E2AD8B42F2A2E50355C096E9A
:1025B0002F500910D8A4B6EF12F0302AD8B4312A1F
:1025C0003050325C096E31500910D8A48AEF12F0F5
:1025D00053EF13F0070EBB5DD8A453EF13F0B951BE
:1025E000326E306A316A4BEF13F0E00E2624286E0B
:1025F000296A2850096E29500A6E0B6A0C6A00017C
:10260000B8510D6E0E6A0F6A106ACEEC09F01150C7
:102610002A6E12502B6E2A5030242C6E2B503120F3
:102620002D6E2C50456E2D50466E22EC12F0336EFE
:10263000010E346E0001BA51356E2E6A2F6A40EFDA
:1026400013F034503314286E2850D8B42DEF13F003
:1026500027500001B46F30EF13F00001B351B46F95
:1026600024503024286E25502E24296E2950376E90
:102670002850A3EC10F0D89034362E2AD8B42F2A44
:102680002E50355C096E2F500910D8A421EF13F09D
:10269000302AD8B4312A3050325C096E31500910DA
:1026A000D8A4F5EF12F027500001B46F12000950C2
:1026B000236E0001B651256E2350266EB5517CEC79
:1026C00012F00001B951B52712009D6F9D519E2552
:1026D000A36F000E006E00509F21A46FD8809D5103
:1026E0009E55A56F000E006E00509F55A66FA0511D
:1026F000A125A76F000E006E0050A221A86FD88000
:10270000A051A155A96F000E006E0050A255AA6FEE
:10271000A451800A096E800E095CD8A492EF13F0D0
:10272000000EA35DAB91D8A4D8B0AB81A451800AB0
:10273000096E800E095CD8A4A0EF13F0800EA35D93
:10274000AB93D8B4A6EF13F0D8A0AB83AB85ABB1F5
:10275000ABA3AB95ABA502EF14F0A851800A096EAC
:10276000800E095CD8A4B7EF13F0000EA75DAB97FD
:10277000D8A4D8B0AB87A851800A096E800E095C36
:10278000D8A4C5EF13F0400EA75DAB99D8B4CBEF3A
:1027900013F0D8A0AB89AB8BABB7ABA9AB9BABAB02
:1027A000D7EF13F0A751376EA351A3EC10F001013E
:1027B000AA51800A096E800E095CD8A4E2EF13F0DA
:1027C000000EA95DAB9DD8A4D8B0AB8DAA51800AEC
:1027D000096E800E095CD8A4F0EF13F0400EA95DDD
:1027E000AB9FD8B4F6EF13F0D8A0AB8FAC81ABBDE4
:1027F000ABAFAC91ACA102EF14F0A951376EA3516D
:10280000A3EC10F00101A651800A096E800E095C4C
:10281000D8A40DEF14F0000EA55DAC93D8A4D8B0E9
:10282000AC83A651800A096E800E095CD8A41BEF08
:1028300014F0800EA55DAC95D8B421EF14F0D8A0AB
:10284000AC85AC87ACB3ACA5AC97ACA77DEF14F06E
:10285000A851800A096E800E095CD8A432EF14F0EA
:10286000000EA75DAC99D8A4D8B0AC89A851800A55
:10287000096E800E095CD8A440EF14F0400EA75DED
:10288000AC9BD8B446EF14F0D8A0AC8BAC8DACB9EF
:10289000ACABAC9DACAD52EF14F0A751376EA55167
:1028A000A3EC10F00101AA51800A096E800E095CA8
:1028B000D8A45DEF14F0000EA95DAC9FD8A4D8B0E9
:1028C000AC8FAA51800A096E800E095CD8A46BEF08
:1028D00014F0400EA95DAD91D8B471EF14F0D8A0FA
:1028E000AD81AD83ACBFADA1AD93ADA37DEF14F0D1
:1028F000A951376EA551A3EF10F0120001016F6FBF
:1029000071517C6F7D6B7E6B72517F6F806B816BC1
:102910007C51826F7D51836F7E51846F856B866B96
:10292000876BD8907C35736F7D35746F7E35756F8E
:102930007351096E74510A6E75510B6E000E0BBE09
:10294000FF0E0C6E7C510D6E7D510E6E7E510F6E22
:10295000000E0FBEFF0E106ECEEC09F011500101FB
:10296000886F1250896F13508A6FD8907F35736FBC
:102970008035746F8135756F7351096E74510A6EAD
:1029800075510B6E000E0BBEFF0E0C6E7F510D6E5F
:1029900080510E6E81510F6E000E0FBEFF0E106E35
:1029A000CEEC09F0115001018B6F12508C6F135057
:1029B0008D6F7F51096E80510A6E81510B6E000E32
:1029C0000BBEFF0E0C6E7F510D6E80510E6E81514D
:1029D0000F6E000E0FBEFF0E106ECEEC09F0115000
:1029E0000101736F1250746F1350756FD8907C355E
:1029F000766F7D35776F7E35786FD880010E76558E
:102A0000796F000E77557A6F000E78557B6F735192
:102A1000096E74510A6E75510B6E000E0BBEFF0EDF
:102A20000C6E79510D6E7A510E6E7B510F6E000E49
:102A30000FBEFF0E106ECEEC09F0115001018E6F2B
:102A400012508F6F1350906F7C51096E7D510A6E3A
:102A50007E510B6E000E0BBEFF0E0C6E7C510D6E88
:102A60007D510E6E7E510F6E000E0FBEFF0E106E6A
:102A7000CEEC09F011500101916F1250926F13507A
:102A8000936F946B956B966B8B51096E8C510A6E9C
:102A90008D510B6E000E0BBEFF0E0C6E7C510D6E39
:102AA0007D510E6E7E510F6E000E0FBEFF0E106E2A
:102AB000CEEC09F011500101976F1250986F13502E
:102AC000996F9A6B9B6B9C6B9C51800A096E995114
:102AD000800A095CD8A474EF15F098519B5DD8A4C6
:102AE00074EF15F097519A5DD8B47AEF15F0D8B01D
:102AF000E2EF15F082519E6F83519F6F7051A06F6E
:102B00008551A16F8651A26F6F5165EC13F00101E1
:102B1000852BD8B4862BD8B4872B88519A27895116
:102B20009B238A519C239151942792519523935131
:102B3000962388519127895192238A519323D890C3
:102B40009435736F9535746F9635756F73518E2507
:102B5000766F74518F21776F75519021786F78510E
:102B6000800A096E800E095CD8A4BEEF15F0000E35
:102B7000775DD8A4BEEF15F0000E765DD8B464EF93
:102B800015F0D8A064EF15F0010E825FD8A0835F26
:102B9000D8A0845FD88097518B55976F98518C55EA
:102BA000986F99518D55996F8E5194278F51952318
:102BB000905196238B518E278C518F238D519023CA
:102BC00064EF15F0826B836B846B7F51856F80514E
:102BD000866F8151876F7F51096E80510A6E8151D6
:102BE0000B6E000E0BBEFF0E0C6E7F510D6E8051F2
:102BF0000E6E81510F6E000E0FBEFF0E106ECEECEA
:102C000009F0115001018E6F12508F6F1350906FA9
:102C10007C51096E7D510A6E7E510B6E000E0BBE0B
:102C2000FF0E0C6E7C510D6E7D510E6E7E510F6E3F
:102C3000000E0FBEFF0E106ECEEC09F01150010118
:102C4000736F1250746F1350756FD8907F35766F15
:102C50008035776F8135786FD880010E7655796F22
:102C6000000E77557A6F000E78557B6F7351096EA1
:102C700074510A6E75510B6E000E0BBEFF0E0C6E7A
:102C800079510D6E7A510E6E7B510F6E000E0FBE94
:102C9000FF0E106ECEEC09F011500101916F125031
:102CA000926F1350936F946B956B966B976B986BB9
:102CB000996B8851096E89510A6E8A510B6E000E0C
:102CC0000BBEFF0E0C6E7F510D6E80510E6E81514A
:102CD0000F6E000E0FBEFF0E106ECEEC09F01150FD
:102CE00001019A6F12509B6F13509C6F9C51800A88
:102CF000096E9951800A095CD8A486EF16F09851A4
:102D00009B5DD8A486EF16F097519A5DD8B48CEFEE
:102D100016F0D8A0F4EF16F082519E6F83519F6F8A
:102D20007051A06F8551A16F8651A26F6F5165ECF4
:102D300013F00101822BD8B4832BD8B4842B8B5190
:102D400097278C5198238D5199238E5194278F5119
:102D50009523905196238B518E278C518F238D5123
:102D60009023D8909435736F9535746F9635756F41
:102D700073519125766F74519221776F755193211C
:102D8000786F7851800A096E800E095CD8A4D0EF64
:102D900016F0000E775DD8A4D0EF16F0000E765D29
:102DA000D8B476EF16F0D8A076EF16F0010E855F56
:102DB000D8A0865FD8A0875FD8809A5188559A6F2F
:102DC0009B5189559B6F9C518A559C6F91519427BB
:102DD000925195239351962388519127895192239B
:102DE0008A51932376EF16F01200516F5351556FAD
:102DF000566B5151576F586BD88055515755596F75
:102E0000565158555A6F5451556F566B5251576F12
:102E1000586BD880555157555B6F565158555C6F5C
:102E2000D89059355D6F5A355E6FD8905B355F6FBE
:102E30005C35606F5151616F626B5251636F646BAF
:102E4000010E656F666B010E676F686B5A51800AE1
:102E5000096E800E095CD8A430EF17F0000E595DA2
:102E6000D8B443EF17F0D8B043EF17F0FF0E656FFB
:102E7000666F591F5A1F592BD8B45A2B5D1F5E1FFE
:102E80005D2BD8B45E2B5C51800A096E800E095C04
:102E9000D8A44DEF17F0000E5B5DD8B460EF17F0CB
:102EA000D8B060EF17F0FF0E676F686F5B1F5C1F95
:102EB0005B2BD8B45C2B5F1F601F5F2BD8B4602BDB
:102EC0005251376E5151A3EC10F0010159515A1172
:102ED0006D85D8B46D955B515C116D87D8B46D97D5
:102EE0006D996DA56DB76D896DA9F4EF17F05A5105
:102EF000800A096E5C51800A095CD8A482EF17F041
:102F00005B51595DD8B488EF17F0D8A0BEEF17F029
:102F1000696B6A6B01016151535D096E6251091061
:102F2000D8B4F4EF17F065516127665162235F5101
:102F3000692760516A235A51800A096E6A51800AD2
:102F4000095CD8A4A6EF17F06951595DD8B4B7EF62
:102F500017F0D8B0B7EF17F06751632768516423B3
:102F6000D88069515D55696F6A515E556A6F6351CA
:102F7000376E6151A3EC10F08AEF17F06B6B6C6B3E
:102F800001016351545D096E64510910D8B4F4EF26
:102F900017F067516327685164235D516B275E51B9
:102FA0006C235C51800A096E6C51800A095CD8A4BC
:102FB000DCEF17F06B515B5DD8B4EDEF17F0D8B0D4
:102FC000EDEF17F06551612766516223D8806B5190
:102FD0005F556B6F6C5160556C6F6351376E61510B
:102FE000A3EC10F0C0EF17F012004D6F4E51526F6E
:102FF0004F51536F4E51546F4D51F5EC16F0010186
:103000004E51526F4F51536F5051546F4F51F5EC19
:1030100016F001015051526F4D51536F5051546F82
:103020004F51F5EC16F001015051526F4D51536F55
:103030004E51546F4D51F5EF16F0020ED8EC11F0D1
:10304000C4EC11F0A3EF18F0010E0001B46F7DEC99
:1030500011F00101446B0001A66BA76BD890A63557
:103060000101456F0001A7350101466FD8900001AD
:10307000A6350101476F0001A7350101486FD880CF
:10308000800E4755496F000E48554A6F4A514C6FA4
:1030900049054B6F4B29D8B44C07526B4B51536FBA
:1030A0003F0E546F4551F5EC16F0030E0101F76F1A
:1030B000F86BD6EC0EF00001A62BD8B4A72B3F0E70
:1030C000A65D096E000EA75D0910D8A42EEF18F0BA
:1030D000A66BA76BD880400EA6550101456F000E68
:1030E0000001A7550101466F0001A6510101526F71
:1030F000536B4551546F7F0EF5EC16F0030E010132
:10310000F76FF86BD6EC0EF00001A62BD8B4A72B06
:103110003F0EA65D096E000EA75D0910D8A46AEFE8
:1031200018F0B46B0101442B020E445DD8A42BEFC0
:1031300018F0020EF16FF26BF7EC0EF0010E0001C9
:10314000B46F7DEF11F024EC18F00001C06B0A0E93
:10315000C16FC051B56FC151B66FAE0E0101E46FC2
:10316000260EE56F000EE66F150EE76FE86B6E0E2C
:10317000E96F000EEA6F000E4009EB6F1EEC0FF0D6
:10318000030ED8EC11F00001C26B190EC36FC251CF
:10319000B56FC351B66FAE0E0101E46F260EE56F39
:1031A000000EE66F0B0EE76FE86B840EE96F000E02
:1031B000EA6F000E4009EB6F1EEC0FF0020ED8EC28
:1031C00011F0020E0001C46F280EC56FC451B56F17
:1031D000C551B66FAE0E0101E46F260EE56F000E0D
:1031E000E66F150EE76FE86B900EE96F000EEA6F61
:1031F000000E4009EB6F1EEC0FF0020E0001C66FCF
:10320000320EC76FC651B56FC751B66FAE0E010112
:10321000E46F260EE56F000EE66F100EE76FE86BA9
:10322000A60EE96F000EEA6F000E4009EB6F1EEC70
:103230000FF0140E0101F16FF26BF7EC0EF07DEC64
:1032400011F0216A6AEF19F0426F4235096E0936B2
:103250003C0E0916C30EC2140910C26EC2800001D2
:10326000BD51AAEC0EF0C282C2B234EF19F0C450C4
:103270000101436F810E0001BC5DD8B443EF19F02A
:10328000D8A052EF19F000010B0E096EB40E0A6EB1
:103290000A2E48EF19F0092E46EF19F00000000041
:1032A00058EF19F000013F0E096E092E55EF19F085
:1032B000C29001014351120001013F6F3F5124ECC4
:1032C00019F00101416FC350406F4051096E4151E7
:1032D0000A6E1200F00E0001BF179280F00EBF15AB
:1032E0000E09BF6F0F0EBF15096E0F0E09140A6E7F
:1032F000F00EC1140A10C16EC86BC839096E300EC9
:103300000916CF0EC1140910C16EC08E080EC96F08
:10331000CA6B0D0EC96FCA6BF80EC0140609C06ED9
:10332000C951BC6FC70EC016150EBD6FE8EC0AF090
:10333000080E0001A85DD8B4C5EF31F0D8A0C5EFE4
:1033400031F0010EA86FC5EF31F03EB1B5EF19F0C5
:10335000475002010A6F48500B6F4B500C6F4C5096
:103360000D6F86EC0DF0C0EF19F0535002010A6F9B
:1033700054500B6F57500C6F58500D6F86EC0DF07A
:10338000630E0001935DD8B4DCEF19F0D8A0DCEF38
:1033900019F0AE0E0101E46F260EE56F000EE66F28
:1033A000050EE76FE86B0A0EE96F010EEA6F000E7B
:1033B0004009EB6F1EEF0FF0AE0E0101E46F260E19
:1033C000E56F000EE66F020EE76FE86BFE0EE96F29
:1033D000000EEA6F000E4009EB6F1EEC0FF0AE0E10
:1033E0000101C86F260EC96F000ECA6F000195510A
:1033F0000101CB6FCC6B2BEC10F0AE0E0101E46F32
:10340000260EE56F000EE66F010EE76FE86B020E09
:10341000E96F010EEA6F000E4009EB6F1EEC0FF032
:10342000AE0E0101C86F260EC96F000ECA6F0001F3
:1034300094510101CB6FCC6B2BEF10F03DB1B6EF87
:103440001AF000019C51D8A439EF1AF0AE0E010118
:10345000E46F260EE56F000EE66F030EE76FE86B74
:103460004C0EE96F010EEA6F000E4009EB6F1EEC87
:103470000FF0010E00019C5DD8A452EF1AF0AE0EC1
:103480000101E46F260EE56F000EE66F030EE76F95
:10349000E86B500EE96F010EEA6F000E4009EB6F0A
:1034A0001EEC0FF0020E00019C5DD8A46BEF1AF029
:1034B000AE0E0101E46F260EE56F000EE66F030EFF
:1034C000E76FE86B540EE96F010EEA6F000E4009DA
:1034D000EB6F1EEC0FF0030E00019C5DD8A484EF8F
:1034E0001AF0AE0E0101E46F260EE56F000EE66FD6
:1034F000030EE76FE86B580EE96F010EEA6F000EDE
:103500004009EB6F1EEC0FF0040E00019C5DD8A487
:103510009DEF1AF0AE0E0101E46F260EE56F000E6E
:10352000E66F030EE76FE86B5C0EE96F010EEA6F62
:10353000000E4009EB6F1EEC0FF0050E00019C5DC4
:10354000D8A44BEF1BF0AE0E0101E46F260EE56F21
:10355000000EE66F030EE76FE86B600EE96F010E79
:10356000EA6F000E4009EB6F1EEF0FF000019D5156
:10357000D8A4CEEF1AF0AE0E0101E46F260EE56F6F
:10358000000EE66F030EE76FE86B4C0EE96F010E5D
:10359000EA6F000E4009EB6F1EEC0FF0010E000108
:1035A0009D5DD8A4E7EF1AF0AE0E0101E46F260E80
:1035B000E56F000EE66F030EE76FE86B500EE96FE4
:1035C000010EEA6F000E4009EB6F1EEC0FF0020EC9
:1035D00000019D5DD8A400EF1BF0AE0E0101E46F69
:1035E000260EE56F000EE66F030EE76FE86B540ED4
:1035F000E96F010EEA6F000E4009EB6F1EEC0FF051
:10360000030E00019D5DD8A419EF1BF0AE0E010161
:10361000E46F260EE56F000EE66F030EE76FE86BB2
:10362000580EE96F010EEA6F000E4009EB6F1EECB9
:103630000FF0040E00019D5DD8A432EF1BF0AE0E1A
:103640000101E46F260EE56F000EE66F030EE76FD3
:10365000E86B5C0EE96F010EEA6F000E4009EB6F3C
:103660001EEC0FF0050E00019D5DD8A44BEF1BF082
:10367000AE0E0101E46F260EE56F000EE66F030E3D
:10368000E76FE86B600EE96F010EEA6F000E40090C
:10369000EB6F1EEF0FF012000101316F010E000100
:1036A000B46F01013151326F3F0E3125336F4E6BD4
:1036B00033514F6F3F0E506F3251F5EC17F001014F
:1036C0003151326F3F0E3125336F340E4E6F33510F
:1036D0004F6F3F0E506F3251F5EC17F00101315131
:1036E000326F030E3125336F310E4E6F33514F6FF2
:1036F000340E506F3251F5EC17F03C0E01013125BC
:10370000326F3F0E3125336F310E4E6F33514F6F95
:10371000340E506F3251F5EC17F00001B46B01011B
:103720003129326F3E0E3125336F350E4E6F3351D6
:103730004F6F3E0E506F3251F5EC17F0010E000145
:10374000B46F020E01013125346F360E386F3451DB
:103750000001B56F010138510001B66F010131510F
:10376000D8A4B8EF1BF03D911EEC1AF0BBEF1BF094
:103770003D811EEC1AF02B0E01013125356F360EFE
:10378000396F35510001B56F010139510001B66F34
:10379000AE0E0101E46F260EE56F000EE66F030E1C
:1037A000E76FE86B060EE96F010EEA6F000E400945
:1037B000EB6F1EEC0FF01F0E01013125366F390E35
:1037C0003A6F030E3B6F3A51706F3B51716F3B5133
:1037D000726F36517EEC14F01E0E01013125326FEE
:1037E000200E3125336F370E526F3351536F3B0E1E
:1037F000546F3251F5EC16F0020E01013125376F8E
:10380000020E3C6F37510001B56F01013C510001C0
:10381000B66F01013151D8A424EF1CF0AE0EE46F55
:10382000260EE56F000EE66F020EE76FE86B100ED6
:10383000E96F010EEA6F000E4009EB6F1EEC0FF00E
:1038400001013E91A5EF19F0AE0EE46F260EE56F73
:10385000000EE66F020EE76FE86B120EE96F010EC5
:10386000EA6F000E4009EB6F1EEC0FF001013E8184
:10387000A5EF19F001012F6F30B178EF1CF00001B6
:10388000BEBB47EF1CF00101309549EF1CF0010170
:1038900030852F513087D8B43097308930B530A774
:1038A000309930A966EF1CF0AE0EE46F260EE56F7E
:1038B000000EE66F030EE76FE86BFA0EE96F000E7D
:1038C000EA6F000E4009EB6F1EEF0FF0AE0EE46FD3
:1038D000260EE56F000EE66F020EE76FE86BF80E3E
:1038E000E96F000EEA6F000E4009EB6F1EEF0FF05C
:1038F0000001BEBD80EF1CF00101309B82EF1CF087
:103900000101308B2F51308DD8B4309D308F30BBBA
:1039100030AD309F30AF9FEF1CF0AE0EE46F260E3F
:10392000E56F000EE66F030EE76FE86BFA0EE96FC6
:10393000000EEA6F000E4009EB6F1EEF0FF0AE0EA7
:10394000E46F260EE56F000EE66F020EE76FE86B80
:10395000F80EE96F000EEA6F000E4009EB6F1EEFE4
:103960000FF0206F070E0001A85D01012993D8B464
:103970002983080E0001A85D01012995D8B4298585
:10398000299729A329B5298729A7CAEF1CF0030E77
:10399000D8EC11F0020E01012025256F050E2B6FCA
:1039A00025510001B56F01012B510001B66F0101D6
:1039B0003D9129B13D811EEC1AF0010129B1F5EFCD
:1039C0001CF0AE0EE46F260EE56F000EE66F020EE1
:1039D000E76FE86B100EE96F010EEA6F000E400909
:1039E000EB6F1EEC0FF007EF1DF0AE0EE46F260E2E
:1039F000E56F000EE66F020EE76FE86B120EE96FDF
:103A0000010EEA6F000E4009EB6F1EEC0FF0010192
:103A100029B136EF1DF00A0E116E126A136A146A8C
:103A20004750096E48500A6E49500B6E4A500C6E52
:103A3000E9EC09F015500101216F1650226F175063
:103A4000236F1850246F640EF66E010EF76E000E91
:103A5000F86E2151F6262251F7222351F82209004F
:103A6000F5500001A66FA76B5FEF1DF00A0E116EF7
:103A7000126A136A146A5350096E54500A6E5550F4
:103A80000B6E56500C6EE9EC09F015500101216FD8
:103A90001650226F1750236F1850246F640EF66E65
:103AA000010EF76E000EF86E2151F6262251F72214
:103AB0002351F8220900F5500001A66FA76BAE0E46
:103AC0000101C86F260EC96F000ECA6F0001A65112
:103AD0000101CB6F0001A7510101CC6F2BEC10F05D
:103AE0000101309129B130810001A6513AEC1CF05E
:103AF000000E0001A75DD8A480EF1DF00A0EA65DA0
:103B0000D8B499EF1DF0D8B099EF1DF0AE0E0101B9
:103B1000E46F260EE56F000EE66F010EE76FE86BAF
:103B2000000EE96F010EEA6F000E4009EB6F1EEC0C
:103B30000FF0020E01012025266F140E2C6F265166
:103B40000001B56F01012C510001B66FAE0E0101ED
:103B5000E46F260EE56F000EE66F050EE76FE86B6B
:103B6000E00EE96F000EEA6F000E4009EB6F1EECED
:103B70000FF0010129B1E8EF1DF00A0E116E126A73
:103B8000136A146A4B50096E4C500A6E4D500B6EFE
:103B90004E500C6EE9EC09F015500101216F1650E2
:103BA000226F1750236F1850246F640EF66E010EAB
:103BB000F76E000EF86E2151F6262251F72223519E
:103BC000F8220900F5500001A66FA76B11EF1EF057
:103BD0000A0E116E126A136A146A5750096E585011
:103BE0000A6E59500B6E5A500C6EE9EC09F01550E4
:103BF0000101216F1650226F1750236F1850246F48
:103C0000640EF66E010EF76E000EF86E2151F62668
:103C10002251F7222351F8220900F5500001A66F26
:103C2000A76BAE0E0101C86F260EC96F000ECA6FDA
:103C30000001A6510101CB6F0001A7510101CC6F1A
:103C40002BEC10F00101309129B130810001A65117
:103C50003AEC1CF0000E0001A75DD8A432EF1EF074
:103C60000A0EA65DD8B44BEF1EF0D8B04BEF1EF095
:103C7000AE0E0101E46F260EE56F000EE66F010E39
:103C8000E76FE86B000EE96F010EEA6F000E400966
:103C9000EB6F1EEC0FF0020E01012025276F230EA3
:103CA0002D6F27510001B56F01012D510001B66F35
:103CB000AE0E0101E46F260EE56F000EE66F050EF5
:103CC000E76FE86BF20EE96F000EEA6F000E400935
:103CD000EB6F1EEC0FF0010129B19AEF1EF00A0EF6
:103CE000116E126A136A146A4F50096E50500A6EB0
:103CF00051500B6E52500C6EE9EC09F01550010159
:103D0000216F1650226F1750236F1850246F640EC6
:103D1000F66E010EF76E000EF86E2151F626225156
:103D2000F7222351F8220900F5500001A66FA76B76
:103D3000C3EF1EF00A0E116E126A136A146A5B500A
:103D4000096E5C500A6E5D500B6E5E500C6EE9ECB5
:103D500009F015500101216F1650226F1750236F83
:103D60001850246F640EF66E010EF76E000EF86E9A
:103D70002151F6262251F7222351F8220900F5504D
:103D80000001A66FA76BAE0E0101C86F260EC96FAA
:103D9000000ECA6F0001A6510101CB6F0001A751AF
:103DA0000101CC6F2BEC10F00101309129B1308171
:103DB0000001A6513AEC1CF0000E0001A75DD8A44A
:103DC000E4EF1EF00A0EA65DD8B4FDEF1EF0D8B0E9
:103DD000FDEF1EF0AE0E0101E46F260EE56F000E42
:103DE000E66F010EE76FE86B000EE96F010EEA6FF8
:103DF000000E4009EB6F1EEC0FF0020E01012025B2
:103E0000286F320E2E6F28510001B56F01012E511F
:103E10000001B66F010EAE5DD8A424EF1FF0AE0E08
:103E20000101E46F260EE56F000EE66F050EE76FE9
:103E3000E86BEC0EE96F000EEA6F000E4009EB6FC5
:103E40001EEC0FF037EF1FF0AE0E0101E46F260EEF
:103E5000E56F000EE66F050EE76FE86BE60EE96FA3
:103E6000000EEA6F000E4009EB6F1EEC0FF001012F
:103E70003E9129B13E81A5EC19F0020ED8EF11F068
:103E8000116F020E1A6F190E1B6F1A510001B56FD8
:103E900001011B510001B66FAE0E0101E46F260E49
:103EA000E56F000EE66F010EE76FE86B000EE96F3D
:103EB000010EEA6F000E4009EB6F1EEC0FF0AE0E24
:103EC0000101E46F260EE56F000EE66F1351E76FF8
:103ED0001451E86F1551E96F1651EA6F1751EB6FE6
:103EE0001EEC0FF0020E01011C6F230E1D6F1C5102
:103EF0000001B56F01011D510001B66FAA5101010A
:103F0000115DD8A498EF1FF0AE0EE46F260EE56F9A
:103F1000000EE66F010EE76FE86B040EE96F010E0D
:103F2000EA6F000E4009EB6F1EEC0FF0AAEF1FF0D6
:103F3000AE0EE46F260EE56F000EE66F010EE76F22
:103F4000E86B000EE96F010EEA6F000E4009EB6F9F
:103F50001EEC0FF0AE0E0101E46F260EE56F000EB1
:103F6000E66F0B0EE76FE86B2C0EE96F010EEA6F40
:103F7000000E4009EB6F1EEC0FF0AE0E0101C86F92
:103F8000260EC96F000ECA6F1851CB6FCC6B2BEC8D
:103F900010F00A0E0101185DD8B4E4EF1FF0D8B09C
:103FA000E4EF1FF0AE0EE46F260EE56F000EE66F35
:103FB000010EE76FE86B000EE96F010EEA6F000E6D
:103FC0004009EB6F1EEC0FF0020E01011E6F2D0E6B
:103FD0001F6F1E510001B56F01011F510001B66F27
:103FE000AA510101125DD8A40AEF20F0AE0EE46FD1
:103FF000260EE56F000EE66F010EE76FE86B040E0C
:10400000E96F010EEA6F000E4009EB6F1EEC0FF036
:104010001CEF20F0AE0EE46F260EE56F000EE66F8B
:10402000010EE76FE86B000EE96F010EEA6F000EFC
:104030004009EB6F1EEC0FF0AE0E0101E46F260E8F
:10404000E56F000EE66F0B0EE76FE86B380EE96F59
:10405000010EEA6F000E4009EB6F1EEC0FF0010E2F
:104060000101195DD8A447EF20F0AE0EE46F260ED3
:10407000E56F000EE66F030EE76FE86B440EE96F25
:10408000010EEA6F000E4009EB6F1EEF0FF0AE0E4F
:10409000E46F260EE56F000EE66F030EE76FE86B28
:1040A000480EE96F010EEA6F000E4009EB6F1EEF3C
:1040B0000FF0020E01010D6F0E6B0D510001B56F77
:1040C00001010E510001B66F9C51D8A47BEF20F086
:1040D000AE0E0101E46F260EE56F000EE66F030ED3
:1040E000E76FE86B4C0EE96F010EEA6F000E4009B6
:1040F000EB6F1EEC0FF0010E00019C5DD8A494EF55
:1041000020F0AE0E0101E46F260EE56F000EE66FA3
:10411000030EE76FE86B500EE96F010EEA6F000EB9
:104120004009EB6F1EEC0FF0020E00019C5DD8A45D
:10413000ADEF20F0AE0E0101E46F260EE56F000E2C
:10414000E66F030EE76FE86B540EE96F010EEA6F3E
:10415000000E4009EB6F1EEC0FF0030E00019C5D9A
:10416000D8A4C6EF20F0AE0E0101E46F260EE56F75
:10417000000EE66F030EE76FE86B580EE96F010E55
:10418000EA6F000E4009EB6F1EEC0FF0040E000109
:104190009C5DD8A4DFEF20F0AE0E0101E46F260E87
:1041A000E56F000EE66F030EE76FE86B5C0EE96FDC
:1041B000010EEA6F000E4009EB6F1EEC0FF0050ECA
:1041C00000019C5DD8A4F8EF20F0AE0E0101E46F71
:1041D000260EE56F000EE66F030EE76FE86B600ECC
:1041E000E96F010EEA6F000E4009EB6F1EEC0FF055
:1041F000AE0E0101E46F260EE56F000EE66F010EB4
:10420000E76FE86B000EE96F010EEA6F000E4009E0
:10421000EB6F1EEC0FF0AE0E0101E46F260EE56FA2
:10422000000EE66F0B0EE76FE86B140EE96F010EE0
:10423000EA6F000E4009EB6F1EEC0FF00A0E116ED4
:10424000126A136A146A4750096E48500A6E495040
:104250000B6E4A500C6EE9EC09F015500101046F29
:104260001650056F1750066F1850076F640EF66EE4
:10427000010EF76E000EF86E0451F6260551F72276
:104280000651F8220900F5500001A66FA76BAE0E8B
:104290000101C86F260EC96F000ECA6F0001A6513A
:1042A0000101CB6F0001A7510101CC6F2BEC10F085
:1042B0000001BEBB60EF21F00101089D62EF21F01B
:1042C0000101088D0001A651A7110101088FD8B482
:1042D000089F098108BD08AF099109A184EF21F069
:1042E000AE0EE46F260EE56F000EE66F030EE76F6D
:1042F000E86BFA0EE96F000EEA6F000E4009EB6FF3
:104300001EEC0FF096EF21F0AE0EE46F260EE56F77
:10431000000EE66F020EE76FE86BF80EE96F000E15
:10432000EA6F000E4009EB6F1EEC0FF0000E00016B
:10433000A75DD8A49EEF21F00A0EA65DD8B4B7EF12
:1043400021F0D8B0B7EF21F0AE0E0101E46F260ED8
:10435000E56F000EE66F010EE76FE86B000EE96F88
:10436000010EEA6F000E4009EB6F1EEC0FF0020E1B
:1043700001010F6F0A0E106F0F510001B56F01019F
:1043800010510001B66F9D51D8A4DAEF21F0AE0EA6
:104390000101E46F260EE56F000EE66F030EE76F76
:1043A000E86B4C0EE96F010EEA6F000E4009EB6FEF
:1043B0001EEC0FF0010E00019D5DD8A4F3EF21F07B
:1043C000AE0E0101E46F260EE56F000EE66F030EE0
:1043D000E76FE86B500EE96F010EEA6F000E4009BF
:1043E000EB6F1EEC0FF0020E00019D5DD8A40CEFE8
:1043F00022F0AE0E0101E46F260EE56F000EE66FAF
:10440000030EE76FE86B540EE96F010EEA6F000EC2
:104410004009EB6F1EEC0FF0030E00019D5DD8A468
:1044200025EF22F0AE0E0101E46F260EE56F000EBF
:10443000E66F030EE76FE86B580EE96F010EEA6F47
:10444000000E4009EB6F1EEC0FF0040E00019D5DA5
:10445000D8A43EEF22F0AE0E0101E46F260EE56F08
:10446000000EE66F030EE76FE86B5C0EE96F010E5E
:10447000EA6F000E4009EB6F1EEC0FF0050E000115
:104480009D5DD8A457EF22F0AE0E0101E46F260E19
:10449000E56F000EE66F030EE76FE86B600EE96FE5
:1044A000010EEA6F000E4009EB6F1EEC0FF0AE0E2E
:1044B0000101E46F260EE56F000EE66F010EE76F57
:1044C000E86B000EE96F010EEA6F000E4009EB6F1A
:1044D0001EEC0FF0AE0E0101E46F260EE56F000E2C
:1044E000E66F0B0EE76FE86B200EE96F010EEA6FC7
:1044F000000E4009EB6F1EEC0FF00A0E116E126AEF
:10450000136A146A5350096E54500A6E55500B6E5C
:1045100056500C6EE9EC09F015500101046F16506D
:10452000056F1750066F1850076F640EF66E010E78
:10453000F76E000EF86E0451F6260551F72206516B
:10454000F8220900F5500001A66FA76BAE0E01011D
:10455000C86F260EC96F000ECA6F0001A651010177
:10456000CB6F0001A7510101CC6F2BEC10F00001C3
:10457000BEBBBFEF22F001010A91C1EF22F00101A1
:104580000A810001A651A71101010A83D8B40A9338
:104590000A850AB10AA30A950AA5E3EF22F0AE0E36
:1045A000E46F260EE56F000EE66F030EE76FE86B13
:1045B000FA0EE96F000EEA6F000E4009EB6F1EEC79
:1045C0000FF0F5EF22F0AE0EE46F260EE56F000E51
:1045D000E66F020EE76FE86BF80EE96F000EEA6F08
:1045E000000E4009EB6F1EEC0FF0000E0001A75DFE
:1045F000D8A4FDEF22F00A0EA65DD8B416EF23F082
:10460000D8B016EF23F0AE0E0101E46F260EE56F71
:10461000000EE66F010EE76FE86B000EE96F010E0A
:10462000EA6F000E4009EB6F1EEC0FF0010E000167
:10463000AA5D01010A99D8B40A89020E0001AA5D97
:1046400001010A9BD8B40A8B0A9D0AA90ABB0A8DEC
:104650000AAD43EF23F0020E126F030E136F146BBB
:104660004C0E156F010E166F000E4009176F0001FA
:1046700097510101186F010E0001BE150101196F5C
:10468000010E40EC1FF0030E0001AA5D01010A9F1C
:10469000D8B40A8F040E0001AA5D01010B91D8B4B1
:1046A0000B810B930AAF0BB10B830BA371EF23F0BC
:1046B000040E126F030E136F146B500E156F010E64
:1046C000166F000E4009176F000198510101186F15
:1046D000000E0001BEB3010E0101196F030E40EC84
:1046E0001FF0050E0001AA5D01010B95D8B40B85E2
:1046F000060E0001AA5D01010B97D8B40B870B9938
:104700000BA50BB70B890BA99FEF23F0060E126FB9
:10471000030E136F146B540E156F010E166F000EFF
:104720004009176F000199510101186F000E000137
:10473000BEB5010E0101196F050E40EC1FF0070E0A
:104740000001AA5D01010B9BD8B40B8B080E000180
:10475000AA5D01010B9DD8B40B8D0B9F0BAB0BBD5C
:104760000B8F0BAFCDEF23F0080E126F030E136FFC
:10477000146B580E156F010E166F000E4009176F5F
:1047800000019A510101186F000E0001BEB7010E21
:104790000101196F070E40EC1FF0090E0001AA5D20
:1047A00001010C91D8B40C810A0E0001AA5D01012F
:1047B0000C93D8B40C830C950CA10CB30C850CA5F0
:1047C000FBEF23F00A0E126F030E136F146B5C0ED7
:1047D000156F010E166F000E4009176F00019B51F7
:1047E0000101186F000E0001BEB9010E0101196F21
:1047F000090E40EF1FF01200F2B2F292F0A054EF57
:1048000024F09E6B9F6BA06BA16BA26BA36BA46B40
:10481000A56B9651D8A40FEF24F0010E966F22924B
:1048200081A22282000EA55DD8A423EF24F0000E01
:10483000A45DD8A423EF24F0000EA35DD8A423EF39
:1048400024F0060EA25D2294D8B429EF24F0D8A05B
:104850002284228622B222A4229622A653EF24F09A
:104860009E2BD8B49F2BD8B4A02BD8B4A12B500E1C
:104870009E5D096EC30E9F5D0912000EA05D0912B8
:10488000000EA15D0910D8A40FEF24F09E6B9F6B62
:10489000A06BA16BA22BD8B4A32BD8B4A42BD8B4F3
:1048A000A52B0FEF24F0F090F0A265EF24F09651C5
:1048B000D8A464EF24F081B662EF24F0020E966F64
:1048C00064EF24F0030E966FF0921950096E1100F8
:1048D000476A486A496A4A6A4B6A4C6A4D6A4E6A34
:1048E000536A546A556A566A576A586A596A5A6AC4
:1048F0000001776B786B796B7A6B7B6B7C6B7D6B74
:104900007E6B7F6B806B816B826B836B846B856B43
:10491000866B876B886B896B8A6B8B6B8C6B8D6BF3
:104920008E6B0101036B010E0001AE5DD8A4BBEFDD
:1049300024F0010E5CEC19F009500001876F0A5059
:10494000886F000E5CEC19F009500001896F0A5065
:104950008A6F030E5CEC19F0095000018B6F0A504E
:104960008C6F020E5CEC19F0095000018D6F0A503B
:104970008E6FDBEF24F0000E5CEC19F009500001A3
:10498000876F0A50886F010E5CEC19F00950000126
:10499000896F0A508A6F020E5CEC19F00950000111
:1049A0008B6F0A508C6F030E5CEC19F009500001FC
:1049B0008D6F0A508E6F8751772788517823000EAC
:1049C000006E0050792300507A2389517B278A5149
:1049D0007C23000E006E00507D2300507E238B51FF
:1049E0007F278C518023000E006E005081230050E1
:1049F00082238D5183278E518423000E006E005038
:104A0000852300508623006A00504A5CD8A415EF25
:104A100025F00050495CD8A415EF25F08851485C7A
:104A2000D8A415EF25F08751475CD8B421EF25F0C5
:104A3000D8B021EF25F08751476E8851486E496AFA
:104A40004A6A006A00504E5CD8A433EF25F000504B
:104A50004D5CD8A433EF25F08A514C5CD8A433EFD9
:104A600025F089514B5CD8B43FEF25F0D8B03FEF2B
:104A700025F089514B6E8A514C6E4D6A4E6A006A20
:104A80000050565CD8A451EF25F00050555CD8A4D6
:104A900051EF25F08C51545CD8A451EF25F08B5187
:104AA000535CD8B45DEF25F0D8B05DEF25F08B51A5
:104AB000536E8C51546E556A566A006A00505A5CA7
:104AC000D8A46FEF25F00050595CD8A46FEF25F003
:104AD0008E51585CD8A46FEF25F08D51575CD8B437
:104AE0007BEF25F0D8B07BEF25F08D51576E8E51BE
:104AF000586E596A5A6A0101032B800E035DD8A4CF
:104B000093EF24F000018F2B140E8F5DD8A48EEF4D
:104B100025F08F6B4F6A506A516A526A902B140EBF
:104B2000905DD8A499EF25F0906B5B6A5C6A5D6A32
:104B30005E6A4A50525CD8A4AAEF25F04950515CF5
:104B4000D8A4AAEF25F04850505CD8A4AAEF25F0CD
:104B500047504F5CD8B4B9EF25F0D8B0B9EF25F085
:104B600047504F6E4850506E4950516E4A50526EE9
:104B70008F6B56505E5CD8A4CAEF25F055505D5C33
:104B8000D8A4CAEF25F054505C5CD8A4CAEF25F035
:104B900053505B5CD8B4D9EF25F0D8B0D9EF25F0ED
:104BA00053505B6E54505C6E55505D6E56505E6E49
:104BB000906BD8907A314A6E7931496E7831486E6F
:104BC0007731476E060E096ED8904A324932483224
:104BD0004732092EE4EF25F0D8907E314E6E7D31BC
:104BE0004D6E7C314C6E7B314B6E060E096ED8904B
:104BF0004E324D324C324B32092EF7EF25F0D89021
:104C00008231566E8131556E8031546E7F31536ED4
:104C1000060E096ED8905632553254325332092E50
:104C20000AEF26F0D89086315A6E8531596E84315C
:104C3000586E8331576E060E096ED8905A3259322B
:104C400058325732092E1DEF26F01200010E965DE4
:104C5000D8A445EF26F0090EA85DD8B436EF26F0AB
:104C6000A851A96F090EA86F43EF26F0AA2B0B0ECF
:104C7000AA5DD8A443EF26F0A951A86FD7EC0BF09A
:104C8000010E0001AA6F7DEC11F0020E0001965D8D
:104C9000D8A4C4EF26F0090EA85DD8A4BAEF26F078
:104CA000010EAA5DD8A456EF26F0972B020EAA5D3E
:104CB000D8A464EF26F0010EBE15096E09280A6E0D
:104CC0000A50BE91D8A4BE81030EAA5DD8A46AEF93
:104CD00026F0982B040EAA5DD8A479EF26F0000EDA
:104CE000BEB3010E096E09280A6E0A50BE93D8A4FD
:104CF000BE83050EAA5DD8A47FEF26F0992B060E81
:104D0000AA5DD8A48EEF26F0000EBEB5010E096E86
:104D100009280A6E0A50BE95D8A4BE85070EAA5D62
:104D2000D8A494EF26F09A2B080EAA5DD8A4A3EF7E
:104D300026F0000EBEB7010E096E09280A6E0A5051
:104D4000BE97D8A4BE87090EAA5DD8A4A9EF26F005
:104D50009B2B0A0EAA5DD8A4C2EF26F0000EBEB9A6
:104D6000010E096E09280A6E0A50BE99D8A4BE89A0
:104D7000C2EF26F0A82B090EA85DD8A4C2EF26F03A
:104D8000010EA86F7DEC11F0030E0001965DD8A412
:104D900042EF27F0090EA85DD8A439EF27F0010EE5
:104DA000AA5DD8A4D5EF26F09707020EAA5DD8A475
:104DB000E3EF26F0010EBE15096E09040A6E0A50D3
:104DC000BE91D8A4BE81030EAA5DD8A4E9EF26F057
:104DD0009807040EAA5DD8A4F8EF26F0000EBEB323
:104DE000010E096E09040A6E0A50BE93D8A4BE8350
:104DF000050EAA5DD8A4FEEF26F09907060EAA5D5F
:104E0000D8A40DEF27F0000EBEB5010E096E0904FF
:104E10000A6E0A50BE95D8A4BE85070EAA5DD8A416
:104E200013EF27F09A07080EAA5DD8A422EF27F007
:104E3000000EBEB7010E096E09040A6E0A50BE9735
:104E4000D8A4BE87090EAA5DD8A428EF27F09B0737
:104E50000A0EAA5DD8A440EF27F0000EBEB9010EDD
:104E6000096E09040A6E0A50BE99D8A4BE897DEF66
:104E700011F0A807A851D8A440EF27F0080EA86F9A
:104E80007DEF11F0120037EC0CF000019651D8B410
:104E900005EF28F0090EA85DCF93D8B4CF83000E9C
:104EA000A55DD8A460EF27F0000EA45DD8A460EF44
:104EB00027F0000EA35DD8A460EF27F0010EA25DDD
:104EC000CF95D8B466EF27F0D8B0CF85000EA55D9A
:104ED000D8A477EF27F0000EA45DD8A477EF27F0D1
:104EE000000EA35DD8A477EF27F0050EA25DCF9743
:104EF000D8B47DEF27F0D8A0CF87CF89CFB5CFA783
:104F0000CF99CF9BCFA3CFB9CF8B010E965DCF9D0D
:104F1000D8A4CF8DCF9FCFABCFBDCF8FCFAF95EFE5
:104F200027F026EC26F0FBEF27F0000EA55DD8A4B5
:104F3000A6EF27F0000EA45DD8A4A6EF27F0000E80
:104F4000A35DD8A4A6EF27F0030EA25DD8B4F1EFBD
:104F500027F0D8A0F1EF27F07DEC11F00001DD6B18
:104F60000A0EDE6FDD51B56FDE51B66F010EAE5D1C
:104F7000D8A4D1EF27F0AE6BAE0E0101E46F260E80
:104F8000E56F000EE66F140EE76FE86BCC0EE96F6D
:104F9000000EEA6F000E4009EB6F1EEC0FF0E6EF1B
:104FA00027F0010EAE6FAE0E0101E46F260EE56F25
:104FB000000EE66F150EE76FE86BB60EE96F000E98
:104FC000EA6F000E4009EB6F1EEC0FF0F40E0101CA
:104FD000F76F010EF86FD6EC0EF07DEC11F0FBEFE1
:104FE00027F0010EAD5DD8A4F9EF27F0AD6BFBEF14
:104FF00027F0010EAD6F00019E6B9F6BA06BA16B44
:10500000A26BA36BA46BA56B966BBEAF19EF28F0D8
:1050100082AC0EEF28F0D0990FEF28F0D089D0B9EC
:1050200015EF28F08B9C16EF28F08B8C8B9E28EFC9
:1050300028F082AE1FEF28F0D09B20EF28F0D08B15
:10504000D0BB26EF28F08B9E27EF28F08B8E8B9C11
:10505000BE9F010EA85DD09DD8B4D08D030EA85D73
:10506000D09FD8B4D08FD191D0ADD0BFD181040E14
:10507000A85DD193D8B4D183D195D1A1D1B3D18535
:10508000D1A546EF28F0000E4CEC1BF0010E0001FC
:10509000A85DD197D8B4D187050EA85DD199D8B4B1
:1050A000D189D19BD1A7D1B9D18B060EA85DD19D55
:1050B000D8B4D18DD19FD1ABD1BDD18FD1AF64EF59
:1050C00028F0400E4CEC1BF068EC24F000019C51E1
:1050D000D8A427EF29F0000E4A5CD8A47CEF28F072
:1050E000000E495CD8A47CEF28F0030E485CD8A4DD
:1050F0007CEF28F0840E475CD8B497EF28F0D8A056
:1051000097EF28F0BEBB91EF28F0476A486A496ADA
:105110004A6A4B6A4C6A4D6A4E6A4F6A506A516AD3
:10512000526ABE8B8A8C140EAB6FC8EF28F0BEABF0
:10513000BBEF28F0000E4A5CD8A4ABEF28F0000EBD
:10514000495CD8A4ABEF28F0000E485CD8A4ABEFC4
:1051500028F0460E475CD8B4BBEF28F0D8B0BBEFC0
:1051600028F0AB07010EAB5DD8B4BBEF28F0D8B088
:10517000BBEF28F0BE9BBEBBC8EF28F0D29FBEB1EC
:10518000D28FD2BFC7EF28F08A9CC8EF28F08A8C54
:105190004750096E48500A6E49500B6E4A500C6ECB
:1051A00097510D6E0E6A0F6A106ACEEC09F011501D
:1051B0000001CB6F1250CC6F1350CD6F1450CE6FD7
:1051C000640E116E126A136A146ACB51096ECC51C7
:1051D0000A6ECD510B6ECE510C6EE9EC09F01550F4
:1051E000476E1650486E1750496E18504A6E4B5015
:1051F000096E4C500A6E4D500B6E4E500C6E0001F5
:1052000097510D6E0E6A0F6A106ACEEC09F01150BC
:105210000001CB6F1250CC6F1350CD6F1450CE6F76
:10522000640E116E126A136A146ACB51096ECC5166
:105230000A6ECD510B6ECE510C6EE9EC09F0155093
:105240004B6E16504C6E17504D6E18504E6E010E30
:1052500000019C5DD8A496EF29F0D393BEB3D3830D
:10526000D3B336EF29F08A9C37EF29F08A8C475068
:10527000096E48500A6E49500B6E4A500C6E985198
:105280000D6E0E6A0F6A106ACEEC09F01150000123
:10529000CB6F1250CC6F1350CD6F1450CE6F640E85
:1052A000116E126A136A146ACB51096ECC510A6EE0
:1052B000CD510B6ECE510C6EE9EC09F01550476ED6
:1052C0001650486E1750496E18504A6E4B50096E72
:1052D0004C500A6E4D500B6E4E500C6E00019851A2
:1052E0000D6E0E6A0F6A106ACEEC09F011500001C3
:1052F000CB6F1250CC6F1350CD6F1450CE6F640E25
:10530000116E126A136A146ACB51096ECC510A6E7F
:10531000CD510B6ECE510C6EE9EC09F015504B6E71
:1053200016504C6E17504D6E18504E6E020E000106
:105330009C5DD8A405EF2AF0D397BEB5D387D3B729
:10534000A5EF29F08A9CA6EF29F08A8C4750096EB8
:1053500048500A6E49500B6E4A500C6E99510D6EB2
:105360000E6A0F6A106ACEEC09F011500001CB6F83
:105370001250CC6F1350CD6F1450CE6F640E116E5F
:10538000126A136A146ACB51096ECC510A6ECD5160
:105390000B6ECE510C6EE9EC09F01550476E1650AD
:1053A000486E1750496E18504A6E4B50096E4C505B
:1053B0000A6E4D500B6E4E500C6E000199510D6EE1
:1053C0000E6A0F6A106ACEEC09F011500001CB6F23
:1053D0001250CC6F1350CD6F1450CE6F640E116EFF
:1053E000126A136A146ACB51096ECC510A6ECD5100
:1053F0000B6ECE510C6EE9EC09F015504B6E165049
:105400004C6E17504D6E18504E6E030E00019C5D91
:10541000D8A47DEF2AF0D39BBEB7D38B010EAD5D30
:10542000D39DD8B4D38DD39FD3ABD3BDD38FD3BFAC
:105430001DEF2AF08A9C1EEF2AF08A8C4750096ED5
:1054400048500A6E49500B6E4A500C6E9A510D6EC0
:105450000E6A0F6A106ACEEC09F011500001CB6F92
:105460001250CC6F1350CD6F1450CE6F640E116E6E
:10547000126A136A146ACB51096ECC510A6ECD516F
:105480000B6ECE510C6EE9EC09F01550476E1650BC
:10549000486E1750496E18504A6E4B50096E4C506A
:1054A0000A6E4D500B6E4E500C6E00019A510D6EEF
:1054B0000E6A0F6A106ACEEC09F011500001CB6F32
:1054C0001250CC6F1350CD6F1450CE6F640E116E0E
:1054D000126A136A146ACB51096ECC510A6ECD510F
:1054E0000B6ECE510C6EE9EC09F015504B6E165058
:1054F0004C6E17504D6E18504E6E040E00019C5DA0
:10550000D8A4ECEF2AF0D493BEB9D483D4B38CEFF3
:105510002AF08A9C8DEF2AF08A8C4750096E4850F9
:105520000A6E49500B6E4A500C6E9B510D6E0E6AFE
:105530000F6A106ACEEC09F011500001CB6F1250C7
:10554000CC6F1350CD6F1450CE6F640E116E126A73
:10555000136A146ACB51096ECC510A6ECD510B6E91
:10556000CE510C6EE9EC09F01550476E1650486E9E
:105570001750496E18504A6E4B50096E4C500A6EC7
:105580004D500B6E4E500C6E00019B510D6E0E6A0D
:105590000F6A106ACEEC09F011500001CB6F125067
:1055A000CC6F1350CD6F1450CE6F640E116E126A13
:1055B000136A146ACB51096ECC510A6ECD510B6E31
:1055C000CE510C6EE9EC09F015504B6E16504C6E36
:1055D00017504D6E18504E6E050E00019C5DD8A4FC
:1055E000FBEF2AF08A9C476A486A496A4A6A4B6A12
:1055F0004C6A4D6A4E6A9D51D8A4BBEF2BF0000E49
:10560000565CD8A410EF2BF0000E555CD8A410EF18
:105610002BF0030E545CD8A410EF2BF0840E535CD7
:10562000D8B42BEF2BF0D8A02BEF2BF0BEBD25EF7D
:105630002BF0536A546A556A566A576A586A596A0F
:105640005A6A5B6A5C6A5D6A5E6ABE8D8A8E140EF7
:10565000AC6F5CEF2BF0BEAD4FEF2BF0000E565C45
:10566000D8A43FEF2BF0000E555CD8A43FEF2BF0F1
:10567000000E545CD8A43FEF2BF0460E535CD8B418
:105680004FEF2BF0D8B04FEF2BF0AC07010EAC5D15
:10569000D8B44FEF2BF0D8B04FEF2BF0BE9DBEBD6E
:1056A0005CEF2BF0D595BEB1D585D5B55BEF2BF072
:1056B0008A9E5CEF2BF08A8E5350096E54500A6E0E
:1056C00055500B6E56500C6E97510D6E0E6A0F6A48
:1056D000106ACEEC09F011500001CB6F1250CC6F64
:1056E0001350CD6F1450CE6F640E116E126A136A90
:1056F000146ACB51096ECC510A6ECD510B6ECE514E
:105700000C6EE9EC09F01550536E1650546E17509C
:10571000556E1850566E5750096E58500A6E5950B3
:105720000B6E5A500C6E000197510D6E0E6A0F6A87
:10573000106ACEEC09F011500001CB6F1250CC6F03
:105740001350CD6F1450CE6F640E116E126A136A2F
:10575000146ACB51096ECC510A6ECD510B6ECE51ED
:105760000C6EE9EC09F01550576E1650586E175034
:10577000596E18505A6E010E00019D5DD8A42AEF93
:105780002CF0D599BEB3D589D5B9CAEF2BF08A9E36
:10579000CBEF2BF08A8E5350096E54500A6E555041
:1057A0000B6E56500C6E98510D6E0E6A0F6A106A91
:1057B000CEEC09F011500001CB6F1250CC6F13509A
:1057C000CD6F1450CE6F640E116E126A136A146A94
:1057D000CB51096ECC510A6ECD510B6ECE510C6E71
:1057E000E9EC09F01550536E1650546E1750556E73
:1057F0001850566E5750096E58500A6E59500B6E1D
:105800005A500C6E000198510D6E0E6A0F6A106AA4
:10581000CEEC09F011500001CB6F1250CC6F135039
:10582000CD6F1450CE6F640E116E126A136A146A33
:10583000CB51096ECC510A6ECD510B6ECE510C6E10
:10584000E9EC09F01550576E1650586E1750596E06
:1058500018505A6E020E00019D5DD8A499EF2CF0ED
:10586000D59DBEB5D58DD5BD39EF2CF08A9E3AEFCA
:105870002CF08A8E5350096E54500A6E55500B6EA0
:1058800056500C6E99510D6E0E6A0F6A106ACEEC6E
:1058900009F011500001CB6F1250CC6F1350CD6F37
:1058A0001450CE6F640E116E126A136A146ACB51D3
:1058B000096ECC510A6ECD510B6ECE510C6EE9ECD7
:1058C00009F01550536E1650546E1750556E1850FF
:1058D000566E5750096E58500A6E59500B6E5A50FA
:1058E0000C6E000199510D6E0E6A0F6A106ACEECB3
:1058F00009F011500001CB6F1250CC6F1350CD6FD7
:105900001450CE6F640E116E126A136A146ACB5172
:10591000096ECC510A6ECD510B6ECE510C6EE9EC76
:1059200009F01550576E1650586E1750596E185092
:105930005A6E030E00019D5DD8A411EF2DF0D69193
:10594000BEB7D681010EAD5DD693D8B4D683D695B9
:10595000D6A1D6B3D685D6B5B1EF2CF08A9EB2EFDC
:105960002CF08A8E5350096E54500A6E55500B6EAF
:1059700056500C6E9A510D6E0E6A0F6A106ACEEC7C
:1059800009F011500001CB6F1250CC6F1350CD6F46
:105990001450CE6F640E116E126A136A146ACB51E2
:1059A000096ECC510A6ECD510B6ECE510C6EE9ECE6
:1059B00009F01550536E1650546E1750556E18500E
:1059C000566E5750096E58500A6E59500B6E5A5009
:1059D0000C6E00019A510D6E0E6A0F6A106ACEECC1
:1059E00009F011500001CB6F1250CC6F1350CD6FE6
:1059F0001450CE6F640E116E126A136A146ACB5182
:105A0000096ECC510A6ECD510B6ECE510C6EE9EC85
:105A100009F01550576E1650586E1750596E1850A1
:105A20005A6E040E00019D5DD8A480EF2DF0D6992A
:105A3000BEB9D689D6B920EF2DF08A9E21EF2DF080
:105A40008A8E5350096E54500A6E55500B6E565044
:105A50000C6E9B510D6E0E6A0F6A106ACEEC09F047
:105A600011500001CB6F1250CC6F1350CD6F1450FA
:105A7000CE6F640E116E126A136A146ACB51096EEE
:105A8000CC510A6ECD510B6ECE510C6EE9EC09F083
:105A90001550536E1650546E1750556E1850566E62
:105AA0005750096E58500A6E59500B6E5A500C6E72
:105AB00000019B510D6E0E6A0F6A106ACEEC09F060
:105AC00011500001CB6F1250CC6F1350CD6F14509A
:105AD000CE6F640E116E126A136A146ACB51096E8E
